S00B000063676F6C2E73313944
S20500000013E7
S20500000100F9
S20500000200F8
S20500000300F7
S20500000413E3
S20500000500F5
S20500000600F4
S20500000700F3
S20500000813DF
S20500000900F1
S20500000A00F0
S20500000B00EF
S20500000C13DB
S20500000D00ED
S20500000E00EC
S20500000F00EB
S20500001013D7
S20500001100E9
S20500001200E8
S20500001300E7
S20500001413D3
S20500001500E5
S20500001600E4
S20500001700E3
S20500001813CF
S20500001900E1
S20500001A00E0
S20500001B00DF
S20500001C13CB
S20500001D00DD
S20500001E00DC
S20500001F00DB
S20500002013C7
S20500002100D9
S20500002200D8
S20500002300D7
S20500002413C3
S20500002500D5
S20500002600D4
S20500002700D3
S20500002813BF
S20500002900D1
S20500002A00D0
S20500002B00CF
S20500002C13BB
S20500002D00CD
S20500002E00CC
S20500002F00CB
S20500003013B7
S20500003100C9
S20500003200C8
S20500003300C7
S20500003413B3
S20500003500C5
S20500003600C4
S20500003700C3
S20500003813AF
S20500003900C1
S20500003A00C0
S20500003B00BF
S20500003C13AB
S20500003D00BD
S20500003E00BC
S20500003F00BB
S20500004013A7
S20500004100B9
S20500004200B8
S20500004300B7
S20500004413A3
S20500004500B5
S20500004600B4
S20500004700B3
S205000048139F
S20500004900B1
S20500004A00B0
S20500004B00AF
S20500004C139B
S20500004D00AD
S20500004E00AC
S20500004F00AB
S2050000501397
S20500005100A9
S20500005200A8
S20500005300A7
S2050000541393
S20500005500A5
S20500005600A4
S20500005700A3
S205000058138F
S20500005900A1
S20500005A00A0
S20500005B009F
S20500005C138B
S20500005D009D
S20500005E009C
S20500005F009B
S2050000601387
S2050000610099
S2050000620098
S2050000630097
S2050000641383
S2050000650095
S2050000660094
S2050000670093
S205000068137F
S2050000690091
S20500006A0090
S20500006B008F
S20500006C137B
S20500006D008D
S20500006E008C
S20500006F008B
S2050000701377
S2050000710089
S2050000720088
S2050000730087
S2050000741373
S2050000750085
S2050000760084
S2050000770083
S205000078136F
S2050000790081
S20500007A0080
S20500007B007F
S20500007C136B
S20500007D007D
S20500007E007C
S20500007F007B
S2050000806F0B
S2050000810079
S2050000824038
S2050000830077
S20500008493E3
S2050000850075
S2050000860074
S2050000870073
S205000088135F
S20500008981F0
S20500008A0070
S20500008B006F
S20500008C93DB
S20500008D81EC
S20500008E006C
S20500008F006B
S2050000901357
S20500009182E7
S2050000920068
S2050000930067
S20500009493D3
S20500009582E3
S2050000960064
S2050000970063
S205000098134F
S20500009983DE
S20500009A0060
S20500009B005F
S20500009C93CB
S20500009D83DA
S20500009E005C
S20500009F005B
S2050000A01347
S2050000A184D5
S2050000A20058
S2050000A30057
S2050000A493C3
S2050000A584D1
S2050000A60054
S2050000A70053
S2050000A8133F
S2050000A985CC
S2050000AA0050
S2050000AB004F
S2050000AC93BB
S2050000AD85C8
S2050000AE004C
S2050000AF004B
S2050000B01337
S2050000B186C3
S2050000B20048
S2050000B30047
S2050000B493B3
S2050000B586BF
S2050000B60044
S2050000B70043
S2050000B8132F
S2050000B987BA
S2050000BA0040
S2050000BB003F
S2050000BC93AB
S2050000BD87B6
S2050000BE003C
S2050000BF003B
S2050000C01327
S2050000C188B1
S2050000C20038
S2050000C30037
S2050000C493A3
S2050000C588AD
S2050000C60034
S2050000C70033
S2050000C8131F
S2050000C989A8
S2050000CA0030
S2050000CB002F
S2050000CC939B
S2050000CD89A4
S2050000CE002C
S2050000CF002B
S2050000D01317
S2050000D18A9F
S2050000D20028
S2050000D30027
S2050000D49393
S2050000D58A9B
S2050000D60024
S2050000D70023
S2050000D8130F
S2050000D98B96
S2050000DA0020
S2050000DB001F
S2050000DC938B
S2050000DD8B92
S2050000DE001C
S2050000DF001B
S2050000E01307
S2050000E18C8D
S2050000E20018
S2050000E30017
S2050000E49383
S2050000E58C89
S2050000E60014
S2050000E70013
S2050000E813FF
S2050000E98D84
S2050000EA0010
S2050000EB000F
S2050000EC937B
S2050000ED8D80
S2050000EE000C
S2050000EF000B
S2050000F013F7
S2050000F18E7B
S2050000F20008
S2050000F30007
S2050000F49373
S2050000F58E77
S2050000F60004
S2050000F70003
S2050000F813EF
S2050000F98F72
S2050000FA0000
S2050000FB00FF
S2050000FC936B
S2050000FD8F6E
S2050000FE00FC
S2050000FF00FB
S20500010017E2
S20500010121D7
S20500010210E7
S20500010300F6
S20500010413E2
S20500010501F3
S20500010601F2
S2050001079F53
S20500010817DA
S2050001090DE3
S20500010A10DF
S20500010B00EE
S20500010C13DA
S20500010D0DDF
S20500010ECD1E
S20500010F48A2
S2050001109752
S2050001110DDB
S20500011210D7
S20500011300E6
S2050001149352
S2050001158D57
S205000116CD16
S205000117489A
S205000118637E
S2050001195888
S20500011ABD22
S20500011B01DD
S20500011C23BA
S20500011D20BC
S20500011E0DCE
S20500011F00DA
S20500012013C6
S2050001210DCB
S2050001224D8A
S20500012300D6
S205000124E3F2
S205000125DCF8
S205000126AD26
S205000127FFD3
S205000128EFE2
S20500012900D0
S20500012AC00F
S20500012B0CC2
S20500012C13BA
S20500012D05C7
S20500012E00CB
S20500012F00CA
S2050001309336
S20500013105C3
S20500013200C7
S20500013300C6
S205000134EFD6
S20500013500C4
S205000136D0F3
S205000137447E
S205000138EFD2
S20500013900C0
S20500013A00BF
S20500013B00BE
S20500013C6756
S20500013D803C
S20500013E00BB
S20500013F00BA
S2050001406356
S2050001414078
S20500014205B2
S20500014306B0
S2050001446352
S205000145C6EE
S20500014605AE
S20500014706AC
S205000148139E
S205000149862A
S20500014A05AA
S20500014B00AE
S20500014C931A
S20500014D05A7
S20500014E05A6
S20500014F00AA
S2050001501396
S20500015105A3
S205000152F0B7
S205000153FFA7
S2050001546342
S2050001550C98
S205000156069D
S20500015702A0
S205000158930E
S205000159069A
S20500015A108F
S20500015B009E
S20500015C633A
S20500015D7A22
S20500015EB6E5
S20500015F009A
S2050001606336
S2050001615840
S205000162C0D7
S2050001630096
S2050001641382
S205000165167E
S205000166167D
S2050001670092
S20500016893FE
S20500016996FA
S20500016A1679
S20500016B008E
S20500016CE3AA
S20500016D6A22
S20500016EB6D5
S20500016FFE8C
S2050001701376
S2050001710583
S2050001720087
S2050001730086
S2050001746322
S205000175E69E
S205000176C5BE
S2050001770082
S205000178B3CE
S20500017985FB
S20500017AC5BA
S20500017B403E
S20500017C334A
S20500017D6517
S20500017ED5A6
S20500017F007A
S20500018093E6
S205000181D6A2
S2050001821661
S2050001830076
S2050001841362
S205000185561E
S205000186165D
S2050001870072
S205000188E38E
S20500018996DA
S20500018A0669
S20500018BFE70
S20500018C6706
S20500018D80EC
S20500018E006B
S20500018F006A
S20500019093D6
S20500019182E6
S2050001920067
S2050001930066
S205000194EF76
S205000195F074
S2050001965F04
S205000197FB67
S205000198134E
S20500019985DB
S20500019A055A
S20500019B005E
S20500019C67F6
S20500019D80DC
S20500019E0259
S20500019F005A
S2050001A03326
S2050001A10553
S2050001A2A0B7
S2050001A34016
S2050001A463F2
S2050001A5480C
S2050001A6B0A3
S2050001A70052
S2050001A8B39E
S2050001A9054B
S2050001AAB09F
S2050001AB400E
S2050001AC6FDE
S2050001ADF05C
S2050001AEDF6C
S2050001AFF951
S2050001B0B396
S2050001B10543
S2050001B2B097
S2050001B34006
S2050001B493B2
S2050001B582C2
S2050001B60043
S2050001B70042
S2050001B8EF52
S2050001B9F050
S2050001BA1F20
S2050001BBF945
S2050001BC330A
S2050001BD0537
S2050001BEA09B
S2050001BF40FA
S2050001C067D2
S2050001C180B8
S2050001C20235
S2050001C30036
S2050001C493A2
S2050001C582B2
S2050001C60033
S2050001C70032
S2050001C863CE
S2050001C9CA66
S2050001CA052A
S2050001CB002E
S2050001CC63CA
S2050001CD4CE0
S2050001CE0526
S2050001CF002A
S2050001D0EF3A
S2050001D1F038
S2050001D29F88
S2050001D3F72F
S2050001D41312
S2050001D5859F
S2050001D6051E
S2050001D70022
S2050001D867BA
S2050001D980A0
S2050001DA021D
S2050001DB001E
S2050001DCB36A
S2050001DD0517
S2050001DEB06B
S2050001DF40DA
S2050001E0E336
S2050001E158C0
S2050001E20512
S2050001E3FE18
S2050001E433E2
S2050001E5050F
S2050001E6A073
S2050001E740D2
S2050001E8EF22
S2050001E9F020
S2050001EA1FF0
S2050001EBF618
S2050001EC33DA
S2050001ED0507
S2050001EEB05B
S2050001EF40CA
S2050001F067A2
S2050001F18088
S2050001F20205
S2050001F30006
S2050001F413F2
S2050001F50103
S2050001F60102
S2050001F7FF03
S2050001F823DE
S2050001F924DC
S2050001FA817E
S2050001FB00FE
S2050001FC23DA
S2050001FD20DC
S2050001FE21DA
S2050001FF01F9
S2050002009761
S20500020107F0
S20500020210E6
S20500020300F5
S2050002049361
S205000205876C
S20500020607EB
S205000207E011
S20500020817D9
S20500020904EB
S20500020A10DE
S20500020B00ED
S20500020C13D9
S20500020D04E7
S20500020E8466
S20500020FDF0A
S20500021023C5
S20500021126C1
S20500021211D5
S20500021300E5
S20500021423C1
S20500021522C1
S2050002169151
S20500021700E1
S20500021833AD
S2050002198956
S20500021A8757
S20500021B409D
S20500021C6379
S20500021D805B
S20500021E8753
S20500021F02D7
S20500022013C5
S205000221597E
S20500022229AD
S2050002234095
S2050002249341
S20500022504CF
S20500022600D2
S20500022700D1
S205000228834D
S20500022927A8
S20500022A04CA
S20500022B00CD
S20500022C9339
S20500022D8447
S20500022E14B6
S20500022F00C9
S20500023013B5
S20500023104C3
S2050002324482
S20500023300C5
S205000234E7DD
S2050002358043
S20500023607BB
S20500023700C1
S205000238E3DD
S205000239E8D7
S20500023A249A
S20500023BFFBE
S20500023C9725
S20500023D07B4
S20500023E10AA
S20500023F00B9
S2050002409325
S2050002418730
S205000242476F
S205000243DCD9
S205000244179D
S20500024504AF
S20500024610A2
S20500024700B1
S205000248139D
S20500024904AB
S20500024AC4EA
S20500024BDBD2
S20500024C3379
S20500024D8922
S20500024E8723
S20500024F4069
S2050002501395
S205000251594E
S205000252297D
S2050002534065
S2050002546341
S2050002558E15
S205000256871B
S20500025700A1
S205000258930D
S205000259049B
S20500025A009E
S20500025B009D
S20500025C8319
S20500025D2774
S20500025E0496
S20500025F0099
S2050002609305
S2050002618413
S2050002621482
S2050002630095
S2050002641381
S205000265048F
S205000266444E
S2050002670091
S205000268E7A9
S205000269800F
S20500026A0787
S20500026B008D
S20500026CE3A9
S20500026DE8A3
S20500026E2466
S20500026FFF8A
S2050002708305
S2050002712067
S205000272C1C5
S2050002730085
S2050002740381
S205000275245F
S2050002768101
S2050002770081
S20500027883FD
S205000279245B
S20500027A413D
S20500027B007D
S20500027C0379
S20500027D2952
S20500027E0179
S20500027F0079
S2050002801365
S2050002810176
S2050002820175
S2050002830174
S205000284670D
S20500028580F3
S2050002860072
S2050002870071
S205000288135D
S205000289036C
S20500028AF07E
S20500028B006D
S20500028C1359
S20500028D0764
S20500028E0565
S20500028F0069
S2050002906305
S2050002917EE9
S205000292C3A3
S2050002930263
S20500029493D1
S20500029577EC
S205000296F76B
S2050002970061
S20500029863FD
S20500029990CF
S20500029A0757
S20500029B0A53
S20500029C63F9
S20500029D92C9
S20500029E0555
S20500029F0851
S2050002A093C5
S2050002A176E1
S2050002A20650
S2050002A3FF56
S2050002A41341
S2050002A576DD
S2050002A6F65C
S2050002A70051
S2050002A8B39D
S2050002A986C9
S2050002AAE668
S2050002AB004D
S2050002AC2329
S2050002AD202B
S2050002AEB793
S2050002AF0049
S2050002B02325
S2050002B12225
S2050002B2B78F
S2050002B30045
S2050002B42321
S2050002B5241F
S2050002B6B78B
S2050002B70041
S2050002B8231D
S2050002B92619
S2050002BAB787
S2050002BB003D
S2050002BC1329
S2050002BD0734
S2050002BE0733
S2050002BF0138
S2050002C0E355
S2050002C166D1
S2050002C2D75F
S2050002C3FE37
S2050002C463D1
S2050002C5141F
S2050002C6062C
S2050002C70031
S2050002C867C9
S2050002C980AF
S2050002CA002E
S2050002CB002D
S2050002CCB379
S2050002CD0625
S2050002CEC367
S2050002CF40E9
S2050002D09395
S2050002D19691
S2050002D22600
S2050002D30025
S2050002D4978D
S2050002D50221
S2050002D60022
S2050002D70021
S2050002D8B36D
S2050002D98699
S2050002DA56C8
S2050002DB001D
S2050002DC67B5
S2050002DD809B
S2050002DEC654
S2050002DF0019
S2050002E023F5
S2050002E10710
S2050002E2B75F
S2050002E30015
S2050002E4A371
S2050002E5060D
S2050002E6B75B
S2050002E70011
S2050002E823ED
S2050002E90609
S2050002EAB757
S2050002EB000D
S2050002ECA369
S2050002ED0506
S2050002EEB753
S2050002EF0009
S2050002F023E5
S2050002F10502
S2050002F2B74F
S2050002F30005
S2050002F4A361
S2050002F504FF
S2050002F6B74B
S2050002F70001
S2050002F823DD
S2050002F904FB
S2050002FAB747
S2050002FB00FD
S2050002FCA359
S2050002FD03F8
S2050002FEB743
S2050002FF00F9
S20500030023D4
S20500030103F3
S205000302B73E
S20500030300F4
S205000304A350
S20500030502F0
S205000306B73A
S20500030700F0
S20500030823CC
S20500030902EC
S20500030AB736
S20500030B00EC
S20500030CA348
S20500030D01E9
S20500030EB732
S20500030F00E8
S20500031023C4
S20500031101E5
S205000312B72E
S20500031300E4
S205000314A340
S20500031500E2
S205000316B72A
S20500031700E0
S20500031823BC
S20500031900DE
S20500031AB726
S20500031B00DC
S20500031C6774
S20500031D805A
S20500031E00D9
S20500031F00D8
S2050003209344
S205000321F5E1
S205000322F5E0
S2050003230FC5
S2050003249340
S205000325963C
S205000326854C
S20500032700D0
S205000328B31C
S205000329E5E9
S20500032AD5F8
S20500032B00CC
S20500032C9338
S20500032D9634
S20500032E05C4
S20500032F01C7
S205000330B314
S205000331E5E1
S205000332D5F0
S20500033300C4
S2050003346F54
S205000335F0D2
S205000336DFE2
S205000337F6CA
S205000338932C
S2050003399628
S20500033A2796
S20500033B00BC
S20500033C9724
S20500033D02B8
S20500033E00B9
S20500033F00B8
S205000340B304
S2050003418630
S205000342565F
S20500034300B4
S2050003449320
S2050003458230
S20500034600B1
S20500034700B0
S205000348E7C8
S205000349802E
S20500034A06A7
S20500034BFAB2
S20500034C9318
S20500034D802A
S20500034E02A7
S20500034F00A8
S2050003509314
S205000351871F
S205000352079E
S205000353FFA5
S2050003543370
S205000355079B
S205000356F7AA
S2050003574060
S205000358336C
S2050003590698
S20500035AF6A7
S20500035B009C
S20500035CE3B8
S20500035D7822
S20500035EC3D6
S20500035FF6A2
S2050003606F28
S205000361F0A6
S205000362DFB6
S205000363F3A1
S205000364B3E0
S205000365C7CB
S205000366A5EC
S2050003670090
S20500036893FC
S205000369F797
S20500036A3756
S20500036B008C
S20500036CB3D8
S20500036D0882
S20500036EC5C4
S20500036F0088
S2050003706324
S20500037194F2
S205000372077E
S205000373067E
S20500037493F0
S205000375077B
S2050003763051
S2050003770080
S205000378631C
S205000379F08E
S20500037AC7B6
S20500037B0676
S20500037C93E8
S20500037D7703
S20500037E3544
S20500037F0078
S2050003801364
S205000381076F
S2050003820570
S2050003830074
S2050003846310
S2050003859AD8
S205000386076A
S205000387066A
S205000388135C
S205000389F678
S20500038AC8A5
S20500038BFF6D
S20500038CB3B8
S20500038D0664
S20500038EE683
S20500038F4028
S20500039093D4
S205000391075F
S2050003920065
S2050003930262
S2050003946300
S205000395CE94
S205000396D78A
S2050003970858
S20500039893CC
S20500039986D8
S20500039A0558
S20500039B005C
S20500039C93C8
S20500039D0753
S20500039E0752
S20500039F0058
S2050003A063F4
S2050003A178DE
S2050003A2C78E
S2050003A30252
S2050003A40350
S2050003A5A8AA
S2050003A6064B
S2050003A70050
S2050003A893BC
S2050003A987C7
S2050003AA4706
S2050003AB004C
S2050003AC93B8
S2050003AD86C4
S2050003AE4603
S2050003AF0048
S2050003B02324
S2050003B1AE98
S2050003B2073E
S2050003B3FF45
S2050003B4E360
S2050003B5E85A
S2050003B6C77A
S2050003B7FE42
S2050003B893AC
S2050003B90737
S2050003BAF647
S2050003BBFF3D
S2050003BCB388
S2050003BD87B3
S2050003BEE752
S2050003BF40F8
S2050003C093A4
S2050003C1F73F
S2050003C2C76E
S2050003C3FF35
S2050003C493A0
S2050003C587AB
S2050003C647EA
S2050003C70030
S2050003C833FC
S2050003C90727
S2050003CAF736
S2050003CB002C
S2050003CCB378
S2050003CD85A5
S2050003CEF534
S2050003CF0028
S2050003D063C4
S2050003D168BE
S2050003D2170E
S2050003D30123
S2050003D467BC
S2050003D580A2
S2050003D60021
S2050003D70020
S2050003D8130C
S2050003D90717
S2050003DA0518
S2050003DB001C
S2050003DC63B8
S2050003DD78A2
S2050003DE1504
S2050003DF0513
S2050003E08394
S2050003E1C74F
S2050003E20510
S2050003E30014
S2050003E41300
S2050003E5070B
S2050003E617FA
S2050003E70010
S2050003E8937C
S2050003E98589
S2050003EA15F8
S2050003EB000C
S2050003ECA368
S2050003ED0FFB
S2050003EEF712
S2050003EFFE0A
S2050003F0E324
S2050003F1986E
S2050003F2E81D
S2050003F3FE06
S2050003F4679C
S2050003F58082
S2050003F60001
S2050003F70000
S2050003F8837C
S2050003F9C638
S2050003FA05F8
S2050003FB00FC
S2050003FC13E8
S2050003FD07F3
S2050003FE17E2
S2050003FF00F8
S2050004009363
S205000401777E
S20500040237BD
S20500040300F3
S205000404A34F
S2050004050FE2
S205000406D719
S205000407FEF1
S205000408935B
S2050004098568
S20500040A15D7
S20500040B00EB
S20500040CE307
S20500040D8E5B
S20500040E07E1
S20500040FF6F1
S2050004108363
S205000411C61F
S20500041205DF
S20500041300E3
S20500041413CF
S20500041507DA
S20500041617C9
S20500041700DF
S205000418934B
S2050004197766
S20500041A37A5
S20500041B00DB
S20500041CA337
S20500041D0FCA
S20500041ED701
S20500041FFED9
S2050004209343
S2050004218550
S20500042215BF
S20500042300D3
S205000424E3EF
S2050004259A37
S20500042607C9
S205000427FCD3
S2050004286F5F
S205000429F0DD
S20500042A1FAD
S20500042BF6D5
S20500042C6763
S20500042D8049
S20500042E00C8
S20500042F00C7
S20500043013B3
S20500043101C4
S20500043201C3
S205000433FFC4
S205000434239F
S205000435269B
S205000436813F
S20500043700BF
S20500043813AB
S20500043904B9
S20500043A00BC
S20500043B02B9
S20500043C8337
S20500043DA316
S20500043E05B3
S20500043F00B7
S2050004408333
S205000441A213
S205000442456F
S20500044300B3
S205000444832F
S205000445AF02
S205000446852B
S20500044700AF
S20500044803AB
S205000449AFFE
S20500044AC5E7
S20500044B00AB
S20500044C8327
S20500044DAEFB
S20500044E05A3
S20500044F01A6
S20500045003A3
S205000451AEF7
S205000452455F
S20500045301A2
S205000454039F
S205000455A3FE
S205000456851B
S205000457019E
S205000458039B
S205000459A8F5
S20500045AC5D7
S20500045B019A
S20500045C8317
S20500045DA6F3
S20500045E0593
S20500045F0295
S2050004601383
S205000461078E
S205000462474D
S2050004630291
S205000464B3DF
S205000465078A
S205000466E6AA
S205000467404F
S205000468236B
S2050004692E5F
S20500046A7715
S20500046BFC8F
S20500046C2367
S20500046D2069
S20500046E5731
S20500046FFE89
S2050004702363
S2050004712263
S205000472F78D
S205000473FF84
S205000474235F
S205000475245D
S205000476E799
S205000477FF80
S205000478235B
S2050004792657
S20500047AD7A5
S20500047BFF7C
S20500047C2357
S20500047D2851
S20500047EC7B1
S20500047FFF78
S2050004802353
S2050004812A4B
S205000482670D
S205000483FE75
S205000484234F
S2050004852C45
S2050004860769
S205000487FF70
S205000488234B
S2050004892E3F
S20500048AD795
S20500048BFE6D
S20500048C93D7
S20500048D85E4
S20500048E4523
S20500048F0265
S205000490E383
S205000491461F
S205000492F470
S205000493FA69
S20500049493CF
S20500049586DB
S205000496055B
S205000497005F
S20500049893CB
S2050004990756
S20500049A0755
S20500049B005B
S20500049C63F7
S20500049D78E1
S20500049EC791
S20500049F0255
S2050004A00353
S2050004A1A8AD
S2050004A2064E
S2050004A30053
S2050004A493BF
S2050004A587CA
S2050004A64709
S2050004A7004F
S2050004A893BB
S2050004A986C7
S2050004AA4606
S2050004AB004B
S2050004AC2327
S2050004ADAE9B
S2050004AE0741
S2050004AFFF48
S2050004B0E363
S2050004B1E85D
S2050004B2C77D
S2050004B3FE45
S2050004B493AF
S2050004B5073A
S2050004B6F64A
S2050004B7FF40
S2050004B8B38B
S2050004B987B6
S2050004BAE755
S2050004BB40FB
S2050004BC93A7
S2050004BDF742
S2050004BEC771
S2050004BFFF38
S2050004C093A3
S2050004C187AE
S2050004C247ED
S2050004C30033
S2050004C433FF
S2050004C5072A
S2050004C6F739
S2050004C7002F
S2050004C8B37B
S2050004C985A8
S2050004CAF537
S2050004CB002B
S2050004CC63C7
S2050004CD68C1
S2050004CE1711
S2050004CF0126
S2050004D00323
S2050004D12401
S2050004D2C163
S2050004D30023
S2050004D4130F
S2050004D50120
S2050004D6011F
S2050004D7011E
S2050004D867B7
S2050004D9809D
S2050004DA001C
S2050004DB001B
S2050004DC8397
S2050004DDC752
S2050004DE0513
S2050004DF0017
S2050004E01303
S2050004E1070E
S2050004E217FD
S2050004E30013
S2050004E4937F
S2050004E5858C
S2050004E615FB
S2050004E7000F
S2050004E8A36B
S2050004E90FFE
S2050004EAF715
S2050004EBFE0D
S2050004ECE327
S2050004ED8287
S2050004EEE820
S2050004EFFE09
S2050004F08383
S2050004F1C73E
S2050004F205FF
S2050004F30003
S2050004F413EF
S2050004F507FA
S2050004F617E9
S2050004F700FF
S2050004F8936B
S2050004F98578
S2050004FA15E7
S2050004FB00FB
S2050004FCA357
S2050004FD0FEA
S2050004FEF701
S2050004FFFEF9
S205000500E312
S2050005019E56
S205000502E80B
S205000503FCF6
S2050005046F82
S205000505F000
S205000506DF10
S205000507FCF2
S20500050800ED
S20500050900EC
S20500050A00EB
S20500050B00EA
S20500050C00E9
S20500050D00E8
S20500050E00E7
S20500050F00E6
S20500051000E5
S20500051100E4
S20500051200E3
S20500051300E2
S20500051400E1
S20500051500E0
S20500051600DF
S20500051700DE
S20500051803DA
S2050005192EAE
S20500051AC714
S20500051B06D4
S20500051C13C6
S20500051D01D7
S20500051E01D6
S20500051FFED8
S20500052023B2
S2050005212CA8
S2050005229142
S20500052300D2
S205000524933E
S2050005255E72
S205000526FED1
S205000527418D
S205000528933A
S205000529F7D5
S20500052A3E8D
S20500052B00CA
S20500052C9336
S20500052D08C0
S20500052E3097
S20500052F00C6
S205000530B312
S205000531873D
S205000532C7FC
S20500053301C1
S205000534635E
S205000535D2EE
S205000536C8F7
S2050005373787
S20500053813AA
S205000539D3E9
S20500053A2794
S20500053B407A
S20500053C13A6
S20500053D8830
S20500053E05B2
S20500053F00B6
S2050005409322
S20500054106AE
S20500054205AE
S20500054300B2
S205000544931E
S20500054507A9
S20500054600AF
S20500054700AE
S205000548832A
S2050005492884
S20500054A08A3
S20500054B00AA
S20500054C9316
S20500054D8721
S20500054E1790
S20500054F00A6
S2050005501392
S205000551089C
S205000552485B
S20500055300A2
S205000554237E
S205000555A000
S2050005561689
S205000557019D
S205000558930A
S2050005598616
S20500055A4655
S20500055B009A
S20500055CE3B6
S20500055DC6D2
S20500055E6730
S20500055FFE98
S2050005601382
S2050005611381
S2050005622370
S2050005630092
S205000564632E
S2050005655A36
S205000566C3CC
S2050005670B83
S20500056893FA
S205000569D7B5
S20500056AEE9D
S20500056B0189
S20500056CB3D6
S20500056D0E7A
S20500056EFE89
S20500056F0086
S20500057093F2
S205000571FE86
S2050005723E45
S2050005730082
S205000574B3CE
S2050005758EF2
S205000576FE81
S205000577403E
S205000578136A
S20500057988F4
S20500057AFE7D
S20500057BFF7B
S20500057C93E6
S20500057D0771
S20500057E6017
S20500057F0076
S20500058093E2
S205000581066E
S2050005820370
S2050005830072
S205000584630E
S205000585FE72
S2050005860768
S205000587313D
S20500058893DA
S2050005890864
S20500058A1358
S20500058B006A
S20500058CB3B6
S20500058D0761
S20500058E6502
S20500058F0066
S205000590B3B2
S20500059188DC
S205000592154E
S2050005930161
S205000594B3AE
S20500059588D8
S2050005961748
S205000597411D
S20500059893CA
S205000599B8A4
S20500059A3823
S20500059B005A
S20500059C3326
S20500059D88D0
S20500059E65F2
S20500059F0056
S2050005A063F2
S2050005A190C4
S2050005A2084B
S2050005A33022
S2050005A4B39E
S2050005A5E868
S2050005A60748
S2050005A7014D
S2050005A893BA
S2050005A9F854
S2050005AA3813
S2050005AB004A
S2050005AC63E6
S2050005AD9AAE
S2050005AE083F
S2050005AF2E18
S2050005B01332
S2050005B1FF45
S2050005B2CE75
S2050005B3FF43
S2050005B493AE
S2050005B5063A
S2050005B60837
S2050005B7003E
S2050005B8B38A
S2050005B988B4
S2050005BAE754
S2050005BB0139
S2050005BC0336
S2050005BDA890
S2050005BE0631
S2050005BF0036
S2050005C093A2
S2050005C187AD
S2050005C247EC
S2050005C30032
S2050005C4939E
S2050005C586AA
S2050005C646E9
S2050005C7002E
S2050005C8230A
S2050005C9AE7E
S2050005CA0724
S2050005CBFF2B
S2050005CCE346
S2050005CD9890
S2050005CEF82F
S2050005CFFE28
S2050005D033F2
S2050005D10321
S2050005D26FB4
S2050005D30022
S2050005D463BE
S2050005D5829E
S2050005D6EE31
S2050005D70519
S2050005D8B36A
S2050005D98795
S2050005DA65B6
S2050005DB001A
S2050005DC0316
S2050005DDC850
S2050005DE0710
S2050005DF0016
S2050005E0B362
S2050005E1060E
S2050005E265AE
S2050005E30012
S2050005E4937E
S2050005E50709
S2050005E613FC
S2050005E7000E
S2050005E823EA
S2050005E9808C
S2050005EA0605
S2050005EB0109
S2050005EC63A6
S2050005EDD632
S2050005EEC740
S2050005EF0303
S2050005F0B352
S2050005F1867E
S2050005F2F50E
S2050005F30002
S2050005F4837E
S2050005F5C63A
S2050005F606F9
S2050005F700FE
S2050005F8B34A
S2050005F907F5
S2050005FAF506
S2050005FB00FA
S2050005FC13E6
S2050005FD03F5
S2050005FE23D4
S2050005FF00F6
S20500060023D1
S2050006018073
S205000602D71B
S20500060300F1
S205000604638D
S2050006055A95
S205000606C32B
S20500060701EC
S205000608B339
S2050006098764
S20500060A6585
S20500060B00E9
S20500060C8365
S20500060DC720
S20500060E07DF
S20500060F00E5
S20500061033B1
S20500061103E0
S205000612657D
S20500061300E1
S20500061423BD
S20500061500DF
S205000616F3EB
S20500061700DD
S2050006188359
S20500061924B7
S20500061A8753
S20500061B06D3
S20500061C9345
S20500061D07D0
S20500061E00D6
S20500061F00D5
S2050006206371
S2050006215E75
S2050006229042
S2050006231EB3
S20500062423AD
S2050006252EA1
S205000626814D
S20500062700CD
S20500062823A9
S2050006292AA1
S20500062A21A9
S20500062B01C8
S20500062C23A5
S20500062D289F
S20500062E3195
S20500062F01C4
S20500063023A1
S205000631269D
S2050006324181
S20500063301C0
S205000634239D
S205000635249B
S205000636516D
S20500063701BC
S2050006382399
S2050006392299
S20500063A6159
S20500063B01B8
S20500063C2395
S20500063D2097
S20500063E7145
S20500063F01B4
S2050006409321
S20500064102B1
S205000642F0C2
S205000643FFB2
S205000644931D
S2050006450FA0
S205000646109E
S20500064700AD
S2050006481399
S20500064904A7
S20500064A307A
S20500064B00A9
S20500064C9315
S20500064D03A4
S20500064E2086
S20500064F00A5
S2050006501391
S205000651DFC4
S205000652376B
S2050006534061
S205000654B3ED
S2050006558619
S205000656E5B9
S205000657019C
S2050006580399
S205000659C8D3
S20500065A0694
S20500065B0099
S20500065C9305
S20500065DFE99
S20500065E771F
S20500065F0095
S2050006609301
S205000661880B
S205000662F49E
S205000663FF92
S205000664B3DD
S2050006653659
S205000666F09E
S205000667008D
S2050006683359
S2050006695833
S20500066AD8B2
S20500066B4148
S20500066C3355
S20500066D8EF9
S20500066EF88E
S20500066F4045
S205000670B3D1
S20500067186FD
S205000672D7AB
S2050006734041
S205000674136D
S205000675730C
S2050006761866
S205000677007D
S2050006783349
S2050006793E3D
S20500067AC0BA
S20500067B0178
S20500067C6315
S20500067D82F5
S20500067E5620
S20500067F1C59
S2050006800371
S205000681294A
S20500068286EC
S2050006830071
S205000684630D
S205000685DA95
S2050006862648
S2050006871D50
S2050006880369
S2050006892A41
S20500068A0664
S20500068B0069
S20500068C1355
S20500068D085F
S20500068E0066
S20500068F0065
S2050006906301
S2050006915013
S2050006924022
S2050006931F42
S205000694035D
S2050006952B34
S205000696C698
S205000697005D
S20500069893C9
S205000699DA81
S20500069A3624
S20500069B4019
S20500069C93C5
S20500069DF661
S20500069E76E0
S20500069F0055
S2050006A03321
S2050006A1084B
S2050006A25BF7
S2050006A30150
S2050006A4034D
S2050006A54807
S2050006A60846
S2050006A7004D
S2050006A83319
S2050006A958F3
S2050006AAD872
S2050006AB4009
S2050006AC1335
S2050006AD78CF
S2050006AE182E
S2050006AF0045
S2050006B063E1
S2050006B10043
S2050006B2FA48
S2050006B31D24
S2050006B483BD
S2050006B52817
S2050006B646F8
S2050006B7003D
S2050006B8B389
S2050006B90932
S2050006BA1B1F
S2050006BB0138
S2050006BCB385
S2050006BD89AE
S2050006BE59DD
S2050006BF0134
S2050006C083B1
S2050006C1C96A
S2050006C20929
S2050006C30031
S2050006C4B37D
S2050006C5D956
S2050006C6D955
S2050006C740ED
S2050006C89399
S2050006C9F932
S2050006CA1911
S2050006CB0029
S2050006CC33F5
S2050006CD081F
S2050006CE38EE
S2050006CF0124
S2050006D063C1
S2050006D10023
S2050006D27AA8
S2050006D31A07
S2050006D4938D
S2050006D59887
S2050006D61806
S2050006D7001D
S2050006D8B369
S2050006D90813
S2050006DA1BFF
S2050006DB0118
S2050006DCB365
S2050006DD888F
S2050006DE58BE
S2050006DF0114
S2050006E08391
S2050006E1C94A
S2050006E2080A
S2050006E30011
S2050006E4937D
S2050006E5B857
S2050006E617F7
S2050006E7000D
S2050006E8B359
S2050006E9D635
S2050006EAD931
S2050006EB40C9
S2050006EC9375
S2050006EDF611
S2050006EE16F0
S2050006EF0005
S2050006F033D1
S2050006F108FB
S2050006F2D82A
S2050006F30001
S2050006F4639D
S2050006F54AB5
S2050006F61EE0
S2050006F713EA
S2050006F8B349
S2050006F98675
S2050006FA17E3
S2050006FB01F8
S2050006FC6395
S2050006FDD621
S2050006FE26D0
S2050006FF07EE
S2050007008370
S2050007012BC7
S20500070206EB
S20500070300F0
S205000704638C
S205000705529C
S205000706707D
S20500070707E5
S20500070803E8
S2050007092BBF
S20500070AC623
S20500070B00E8
S20500070C9354
S20500070DDA0C
S20500070E36AF
S20500070F40A4
S2050007109350
S205000711F9E9
S205000712766B
S20500071300E0
S205000714B32C
S20500071506D8
S2050007165B82
S20500071701DB
S2050007188358
S205000719C614
S20500071A06D3
S20500071B00D8
S20500071CB324
S20500071DD600
S20500071E369F
S20500071F4193
S2050007209340
S205000721F6DC
S20500072216BB
S20500072300D0
S205000724339C
S20500072508C6
S205000726D8F5
S20500072700CC
S2050007286368
S205000729804A
S20500072AFBCE
S20500072B05C3
S20500072C8344
S20500072D26A0
S20500072E467F
S20500072F00C4
S2050007303390
S2050007310AB8
S205000732DBE6
S20500073300C0
S205000734338C
S2050007350AB4
S2050007365A63
S20500073701BB
S20500073803B8
S2050007394A70
S20500073A0AAF
S20500073B00B8
S20500073C3384
S20500073D5A5C
S20500073E3A7B
S20500073F4173
S20500074013A0
S2050007417A38
S2050007421A97
S20500074300B0
S205000744337C
S20500074508A6
S2050007464865
S20500074701AB
S2050007486348
S205000749802A
S20500074A7B2E
S20500074B02A6
S20500074C9314
S20500074D9610
S20500074E168F
S20500074F00A4
S205000750B3F0
S205000751069C
S205000752DBC6
S20500075300A0
S205000754B3EC
S2050007558618
S2050007565647
S205000757019B
S2050007588318
S205000759C6D4
S20500075A0693
S20500075B0098
S20500075CB3E4
S20500075DD6C0
S20500075E365F
S20500075F4153
S2050007609300
S205000761F69C
S205000762167B
S2050007630090
S205000764335C
S2050007650886
S205000766D8B5
S205000767008C
S20500076893F8
S2050007698802
S20500076A1871
S20500076B0088
S20500076C93F4
S20500076D87FF
S20500076E176E
S20500076F0084
S2050007706320
S205000771463C
S2050007721E63
S2050007730779
S205000774631C
S205000775D4AA
S2050007762756
S2050007770775
S20500077883F8
S2050007792A50
S20500077A0673
S20500077B0078
S20500077C6314
S20500077D5026
S20500077E5025
S20500077F076D
S20500078083F0
S205000781264C
S205000782C6AB
S2050007830070
S205000784135C
S205000785DA94
S2050007863736
S205000787402C
S2050007881358
S205000789F971
S20500078A77F2
S20500078B0068
S20500078CB3B4
S20500078D89DD
S20500078E461F
S20500078F0163
S20500079083E0
S205000791C89A
S2050007920958
S2050007930060
S205000794B3AC
S205000795D886
S2050007962835
S205000797411B
S20500079893C8
S205000799F862
S20500079A1841
S20500079B0058
S20500079C3324
S20500079D084E
S20500079E183D
S20500079F0153
S2050007A063F0
S2050007A18EC4
S2050007A2FA57
S2050007A3034D
S2050007A4034C
S2050007A52E20
S2050007A64607
S2050007A7004C
S2050007A8B398
S2050007A989C1
S2050007AAC980
S2050007AB0147
S2050007AC83C4
S2050007ADC87E
S2050007AE093C
S2050007AF0044
S2050007B0B390
S2050007B1D86A
S2050007B22819
S2050007B341FF
S2050007B493AC
S2050007B5F846
S2050007B61825
S2050007B7003C
S2050007B83308
S2050007B90832
S2050007BA1821
S2050007BB0137
S2050007BC63D4
S2050007BD80B6
S2050007BE7ABB
S2050007BF0232
S2050007C01320
S2050007C11E14
S2050007C21E13
S2050007C30030
S2050007C4B37C
S2050007C586A8
S2050007C6C667
S2050007C7012B
S2050007C8B378
S2050007C986A4
S2050007CA46E3
S2050007CB0127
S2050007CC83A4
S2050007CDC660
S2050007CE061F
S2050007CF0024
S2050007D0B370
S2050007D1D64C
S2050007D226FB
S2050007D341DF
S2050007D4938C
S2050007D5F628
S2050007D61607
S2050007D7001C
S2050007D833E8
S2050007D90812
S2050007DAD841
S2050007DB0018
S2050007DC63B4
S2050007DD1AFC
S2050007DE0312
S2050007DF0410
S2050007E063B0
S2050007E11EF4
S2050007E28889
S2050007E30010
S2050007E433DC
S2050007E50FFF
S2050007E6E528
S2050007E7010B
S2050007E80308
S2050007E948C2
S2050007EA0FFA
S2050007EB0008
S2050007ECB354
S2050007ED9670
S2050007EEDF26
S2050007EF0103
S2050007F0B350
S2050007F1C63C
S2050007F206FB
S2050007F301FF
S2050007F423DC
S2050007F500FE
S2050007F6DF1E
S2050007F700FC
S2050007F88378
S2050007F924D6
S2050007FA8772
S2050007FB06F2
S2050007FCE314
S2050007FDCA2C
S2050007FE975E
S2050007FFE410
S20500080003EF
S20500080124CD
S205000802C12F
S20500080301EE
S20500080403EB
S20500080529C4
S20500080641AB
S20500080701EA
S2050008088367
S20500080929C0
S20500080A01E7
S20500080B01E6
S20500080C03E3
S20500080D2ABB
S20500080EC123
S20500080F00E3
S205000810835F
S2050008112AB7
S205000812815F
S20500081300DF
S20500081403DB
S2050008152BB2
S205000816419B
S20500081700DB
S2050008188357
S2050008192BAE
S20500081A01D7
S20500081B00D7
S20500081C8353
S20500081D24B1
S20500081E8153
S20500081F01D2
S20500082013BF
S20500082101D0
S20500082201CF
S20500082302CD
S2050008246767
S205000825804D
S20500082600CC
S20500082700CB
S2050008289337
S2050008298742
S20500082A17B1
S20500082B00C7
S20500082CE3E3
S20500082D0ABB
S20500082E03C1
S20500082FFAC9
S20500083013AF
S20500083108B9
S205000832D8E8
S205000833FFC0
S205000834E3DB
S205000835E8D5
S2050008360FAD
S205000837FBC0
S205000838E3D7
S205000839CCED
S20500083A9721
S20500083BE0D7
S20500083C6F47
S20500083DF0C5
S20500083E5F55
S20500083FFCB7
S205000840634F
S205000841842D
S205000842F8B8
S20500084304AB
S20500084403AB
S2050008452984
S2050008468626
S20500084700AB
S2050008489317
S20500084908A1
S20500084A1098
S20500084B00A7
S20500084CB3F3
S20500084D861F
S20500084E178D
S20500084F01A2
S205000850138F
S2050008510899
S20500085200A0
S205000853009F
S2050008546F2F
S205000855F0AD
S2050008569FFD
S205000857EAB1
S2050008589307
S205000859B8E1
S20500085A1781
S20500085B0097
S20500085CE3B3
S20500085D583D
S20500085E1E76
S20500085FFF94
S20500086093FF
S205000861870A
S2050008621779
S205000863008F
S205000864E3AB
S205000865107D
S2050008660389
S205000867F893
S205000868E3A7
S205000869C4C5
S20500086A97F1
S20500086BDEA9
S20500086C6F17
S20500086DF095
S20500086E5F25
S20500086FF98A
S20500087093EF
S205000871B8C9
S2050008721769
S205000873007F
S205000874E39B
S205000875522B
S2050008761E5E
S205000877E992
S20500087893E7
S20500087987F2
S20500087A1761
S20500087B0077
S20500087CE393
S20500087D1A5B
S20500087E0371
S20500087FFA79
S205000880E38F
S205000881C8A9
S20500088297D9
S205000883DC93
S2050008846FFF
S205000885F07D
S205000886DF8D
S205000887F774
S20500088893D7
S20500088987E2
S20500088A0464
S20500088B0067
S20500088CE383
S20500088D1C49
S20500088E0361
S20500088FF46F
S205000890E37F
S205000891C0A1
S20500089297C9
S205000893DC83
S2050008946FEF
S205000895F06D
S205000896DF7D
S205000897F665
S205000898E377
S2050008995009
S20500089AC098
S20500089BD97E
S20500089C93C3
S20500089D064F
S20500089E0054
S20500089F0053
S2050008A0B39F
S2050008A187CA
S2050008A2D57B
S2050008A3004F
S2050008A4331B
S2050008A58EBF
S2050008A6C587
S2050008A7014A
S2050008A8B397
S2050008A90643
S2050008AAD573
S2050008AB0047
S2050008AC0343
S2050008ADC87D
S2050008AE073D
S2050008AF0043
S2050008B093AF
S2050008B187BA
S2050008B21729
S2050008B3003F
S2050008B493AB
S2050008B586B7
S2050008B61626
S2050008B7003B
S2050008B8A397
S2050008B98FAA
S2050008BA0632
S2050008BBFF38
S2050008BCE353
S2050008BD181D
S2050008BEFE36
S2050008BFFE35
S2050008C06FC3
S2050008C1F041
S2050008C29F91
S2050008C3D55A
S2050008C4131B
S2050008C5012C
S2050008C6012B
S2050008C7F437
S2050008C82307
S2050008C92CFD
S2050008CA81A7
S2050008CB0A1D
S2050008CC0323
S2050008CD2401
S2050008CE45DF
S2050008CF0023
S2050008D023FF
S2050008D12AF7
S2050008D2918F
S2050008D30A15
S2050008D423FB
S2050008D528F5
S2050008D621FB
S2050008D70B10
S2050008D89387
S2050008D90415
S2050008DA30E8
S2050008DB0017
S2050008DC1303
S2050008DD090C
S2050008DE0113
S2050008DF0310
S2050008E0937F
S2050008E157BA
S2050008E2F41C
S2050008E341CE
S2050008E423EB
S2050008E526E7
S2050008E631DB
S2050008E70B00
S2050008E823E7
S2050008E924E5
S2050008EA41C7
S2050008EB0BFC
S2050008EC23E3
S2050008ED22E3
S2050008EE51B3
S2050008EF0BF8
S2050008F023DF
S2050008F12ED3
S2050008F2718F
S2050008F309F6
S2050008F423DB
S2050008F52CD1
S2050008F6817B
S2050008F709F2
S2050008F89367
S2050008F9F702
S2050008FA37C1
S2050008FB00F7
S2050008FC9363
S2050008FD1BDA
S2050008FE14E0
S2050008FF00F3
S20500090023CE
S2050009012EC2
S20500090211DE
S2050009030AE4
S20500090423CA
S20500090520CC
S205000906618A
S2050009070BDF
S20500090823C6
S20500090920C8
S20500090A9156
S20500090B00E6
S20500090C23C2
S20500090D22C2
S20500090E8162
S20500090F00E2
S20500091023BE
S20500091126BA
S20500091221BE
S20500091301DD
S20500091403DA
S2050009152CB0
S205000916C516
S20500091700DA
S20500091813C6
S2050009190ACE
S20500091A05D2
S20500091B00D6
S20500091CB322
S20500091D874D
S20500091E874C
S20500091F00D2
S205000920933E
S2050009218A46
S20500092205CA
S20500092300CE
S205000924B31A
S20500092509C3
S2050009268942
S20500092700CA
S205000928B316
S2050009290BBD
S20500092A794E
S20500092B01C5
S20500092C6362
S20500092D5E66
S20500092E8043
S20500092F06BC
S20500093013AE
S20500093106BA
S20500093204BB
S20500093300BE
S205000934932A
S20500093505B7
S20500093600BB
S20500093700BA
S20500093813A6
S20500093905B3
S20500093A09AE
S20500093B00B6
S20500093C13A2
S20500093DDBD9
S20500093E278C
S20500093F4072
S205000940EFC2
S205000941F0C0
S2050009429F10
S205000943941A
S205000944634A
S205000945D4D8
S2050009468427
S2050009471C8E
S2050009489316
S2050009491494
S20500094A2B7C
S20500094B00A6
S20500094C1392
S20500094D861E
S20500094E049F
S20500094F00A2
S205000950930E
S205000951059B
S2050009520C93
S205000953009E
S205000954138A
S2050009558517
S2050009560992
S205000957009A
S205000958EFAA
S205000959F0A8
S20500095ADFB8
S20500095BA0F6
S20500095C1382
S20500095D850F
S20500095E048F
S20500095F0092
S205000960632E
S205000961DAB6
S205000962840B
S2050009631A74
S205000964B3DA
S2050009650587
S205000966ACDF
S205000967008A
S2050009683356
S2050009690682
S20500096AA4E3
S20500096B4046
S20500096C3352
S20500096D85FF
S20500096EA9DA
S20500096F0082
S205000970EF92
S205000971F090
S2050009725F20
S2050009739FDF
S20500097493EA
S2050009750775
S205000976304B
S205000977007A
S2050009783346
S2050009790C6C
S20500097A8CEB
S20500097B0076
S20500097C6312
S20500097DD4A0
S20500097E87EC
S20500097F185A
S20500098093DE
S205000981145C
S2050009822B44
S205000983006E
S205000984135A
S20500098586E6
S2050009860467
S205000987006A
S20500098893D6
S2050009890563
S20500098A0C5B
S20500098B0066
S20500098C1352
S20500098D85DF
S20500098E0B58
S20500098F0062
S205000990EF72
S205000991F070
S2050009925F00
S2050009939DC1
S20500099463FA
S205000995DA82
S20500099684D7
S205000997005A
S2050009983326
S2050009990652
S20500099A94C3
S20500099B4016
S20500099CB3A2
S20500099D054F
S20500099E9CB7
S20500099F0052
S2050009A0331E
S2050009A185CB
S2050009A29BB4
S2050009A3004E
S2050009A4EF5E
S2050009A5F05C
S2050009A61F2C
S2050009A79CAE
S2050009A883C6
S2050009A9A7A1
S2050009AA4AFD
S2050009AB0640
S2050009AC63E2
S2050009AD5CE8
S2050009AEF053
S2050009AF083A
S2050009B0231E
S2050009B12A16
S2050009B291AE
S2050009B30935
S2050009B4231A
S2050009B52814
S2050009B6A19A
S2050009B70931
S2050009B81326
S2050009B90B2D
S2050009BA2017
S2050009BB0036
S2050009BC93A2
S2050009BD0430
S2050009BE0033
S2050009BF0032
S2050009C0131E
S2050009C10C24
S2050009C230FF
S2050009C3002E
S2050009C4131A
S2050009C587A5
S2050009C60A21
S2050009C7002A
S2050009C89396
S2050009C986A2
S2050009CA0423
S2050009CB0026
S2050009CC1312
S2050009CD061E
S2050009CE0122
S2050009CF0022
S2050009D0938E
S2050009D1859B
S2050009D20916
S2050009D3001E
S2050009D4130A
S2050009D50517
S2050009D6011A
S2050009D70119
S2050009D8EF2A
S2050009D9F028
S2050009DA1FF8
S2050009DBB462
S2050009DC8392
S2050009DD2CE8
S2050009DE4AC9
S2050009DF0012
S2050009E0838E
S2050009E127E9
S2050009E2CA45
S2050009E3000E
S2050009E433DA
S2050009E58785
S2050009E69C6F
S2050009E70208
S2050009E813F6
S2050009E9D434
S2050009EAFC0B
S2050009EB41C5
S2050009EC13F2
S2050009ED7490
S2050009EE34CF
S2050009EF0002
S2050009F033CE
S2050009F104FC
S2050009F2946B
S2050009F301FD
S2050009F413EA
S2050009F554A8
S2050009F624D7
S2050009F740BA
S2050009F8B346
S2050009F98771
S2050009FAE710
S2050009FB00F6
S2050009FC6392
S2050009FD5C98
S2050009FE9C57
S2050009FF0FE3
S205000A0013DD
S205000A0114DB
S205000A0224CA
S205000A0300ED
S205000A0413D9
S205000A058566
S205000A0607E3
S205000A0700E9
S205000A0813D5
S205000A0906E1
S205000A0A04E2
S205000A0B00E5
S205000A0C9351
S205000A0D05DE
S205000A0E01E1
S205000A0F01E0
S205000A10EFF1
S205000A11F0EF
S205000A125F7F
S205000A139548
S205000A149349
S205000A1507D4
S205000A1605D5
S205000A1700D9
S205000A186375
S205000A195C7B
S205000A1A9442
S205000A1B01D4
S205000A1C13C1
S205000A1D07CC
S205000A1E01D1
S205000A1F01D0
S205000A20339D
S205000A218649
S205000A228C42
S205000A23408D
S205000A24B319
S205000A2505C6
S205000A268743
S205000A2700C9
S205000A283395
S205000A298542
S205000A2A873F
S205000A2B00C5
S205000A2CEFD5
S205000A2DF0D3
S205000A2E9F23
S205000A2F932E
S205000A30833D
S205000A31A718
S205000A324A74
S205000A3306B7
S205000A349329
S205000A358437
S205000A3614A6
S205000A3700B9
S205000A386355
S205000A39CEE9
S205000A3AF4C2
S205000A3B02B3
S205000A3C8331
S205000A3D2C87
S205000A3E4171
S205000A3F09A8
S205000A4003AD
S205000A412D82
S205000A4201AD
S205000A4309A4
S205000A448329
S205000A45208B
S205000A46C1E9
S205000A470B9E
S205000A4803A5
S205000A492483
S205000A4A8125
S205000A4B0B9A
S205000A4C8321
S205000A4D247F
S205000A4E4161
S205000A4F0B96
S205000A50039D
S205000A512976
S205000A52019D
S205000A530B92
S205000A548319
S205000A552972
S205000A56C1D9
S205000A570A8F
S205000A580395
S205000A592A6D
S205000A5A8115
S205000A5B0A8B
S205000A5C8311
S205000A5D2A69
S205000A5E4151
S205000A5F0A87
S205000A60038D
S205000A612B64
S205000A62018D
S205000A630A83
S205000A648309
S205000A652B60
S205000A66C1C9
S205000A670980
S205000A680385
S205000A692C5B
S205000A6A8105
S205000A6B097C
S205000A6C1371
S205000A6D0182
S205000A6E0181
S205000A6F0C75
S205000A706719
S205000A7180FF
S205000A72007E
S205000A73007D
S205000A746319
S205000A755427
S205000A76FB7F
S205000A770673
S205000A7883F5
S205000A792C4B
S205000A7A4A2C
S205000A7B0075
S205000A7C0371
S205000A7D2D46
S205000A7ECAA8
S205000A7F0071
S205000A80B3BD
S205000A810768
S205000A829BD3
S205000A83036A
S205000A841359
S205000A85D596
S205000A86FC6E
S205000A874128
S205000A881355
S205000A8975F2
S205000A8A3531
S205000A8B0065
S205000A8C3331
S205000A8D055E
S205000A8E95CD
S205000A8F0160
S205000A90134D
S205000A91550A
S205000A922539
S205000A93401D
S205000A943329
S205000A950D4E
S205000A96FD5D
S205000A970059
S205000A9863F5
S205000A995205
S205000A9A9CBA
S205000A9B074E
S205000A9C1341
S205000A9D143F
S205000A9E252D
S205000A9F0051
S205000AA0133D
S205000AA10649
S205000AA2044A
S205000AA3004D
S205000AA493B9
S205000AA50546
S205000AA60D3D
S205000AA70049
S205000AA81335
S205000AA90542
S205000AAA093D
S205000AAB0045
S205000AACEF55
S205000AADF053
S205000AAE9FA3
S205000AAF8BB6
S205000AB063DD
S205000AB15AE5
S205000AB294AA
S205000AB3013C
S205000AB43309
S205000AB586B5
S205000AB68CAE
S205000AB740F9
S205000AB8B385
S205000AB90532
S205000ABA8DA9
S205000ABB0035
S205000ABC3301
S205000ABD052E
S205000ABE89A9
S205000ABF0031
S205000AC0EF41
S205000AC1F03F
S205000AC25FCF
S205000AC38AA3
S205000AC49399
S205000AC50724
S205000AC60921
S205000AC70029
S205000AC81315
S205000AC90B1C
S205000ACA1B0B
S205000ACB0025
S205000ACC1311
S205000ACD899A
S205000ACE0919
S205000ACF0021
S205000AD0938D
S205000AD18996
S205000AD20B13
S205000AD3001D
S205000AD49389
S205000AD58B90
S205000AD60713
S205000AD70019
S205000AD86FA9
S205000AD9F027
S205000ADADF37
S205000ADBEE27
S205000ADC0311
S205000ADDA66D
S205000ADECA48
S205000ADF060B
S205000AE0E32D
S205000AE152BD
S205000AE2C04E
S205000AE3FE0F
S205000AE49379
S205000AE50506
S205000AE6000A
S205000AE70009
S205000AE813F5
S205000AE90502
S205000AEA09FD
S205000AEB0005
S205000AECEF15
S205000AEDF013
S205000AEECF33
S205000AEFF908
S205000AF06F91
S205000AF1F00F
S205000AF25F9F
S205000AF3FD00
S205000AF413E9
S205000AF504F7
S205000AF600FA
S205000AF700F9
S205000AF86F89
S205000AF9F007
S205000AFA1FD7
S205000AFBF203
S205000AFC13E1
S205000AFD04EF
S205000AFE00F2
S205000AFF00F1
S205000B006F80
S205000B01F0FE
S205000B021FCE
S205000B03FBF1
S205000B049358
S205000B0504E6
S205000B0600E9
S205000B0700E8
S205000B086F78
S205000B09F0F6
S205000B0A1FC6
S205000B0BE9FB
S205000B0C13D0
S205000B0D05DD
S205000B0E00E1
S205000B0F00E0
S205000B106F70
S205000B11F0EE
S205000B125F7E
S205000B13E5F7
S205000B1433A8
S205000B150CCE
S205000B168C4D
S205000B1700D8
S205000B186F68
S205000B19F0E6
S205000B1ADFF6
S205000B1BE6EE
S205000B1C8350
S205000B1DA72B
S205000B1E458C
S205000B1F06CA
S205000B2013BC
S205000B2101CD
S205000B2201CC
S205000B23FECE
S205000B2423A8
S205000B2526A4
S205000B263198
S205000B2701C7
S205000B2823A4
S205000B292E98
S205000B2A11B4
S205000B2B00C4
S205000B2CB70C
S205000B2D09B9
S205000B2E10B1
S205000B2F00C0
S205000B30635C
S205000B315C62
S205000B32F0CD
S205000B330AB2
S205000B342398
S205000B352A90
S205000B369128
S205000B3700B8
S205000B382394
S205000B39288E
S205000B3A2194
S205000B3B01B3
S205000B3C2390
S205000B3D248E
S205000B3E4170
S205000B3F01AF
S205000B40238C
S205000B41228C
S205000B42515C
S205000B4301AB
S205000B442388
S205000B452C7E
S205000B468128
S205000B4700A8
S205000B489314
S205000B498A1C
S205000B4A05A0
S205000B4B00A4
S205000B4C1390
S205000B4D0A98
S205000B4E059C
S205000B4F00A0
S205000B50930C
S205000B51049A
S205000B52009D
S205000B53009C
S205000B543764
S205000B550991
S205000B561089
S205000B570098
S205000B588314
S205000B59A7EF
S205000B5A8A0B
S205000B5B068E
S205000B5C1380
S205000B5D048E
S205000B5E0091
S205000B5F0090
S205000B60632C
S205000B61503E
S205000B62F09D
S205000B630686
S205000B648308
S205000B652763
S205000B668AFF
S205000B670088
S205000B681374
S205000B695630
S205000B6A3451
S205000B6B4044
S205000B6C1370
S205000B6D057D
S205000B6E0978
S205000B6F0080
S205000B7093EC
S205000B717608
S205000B727409
S205000B73007C
S205000B7493E8
S205000B750575
S205000B76E099
S205000B770276
S205000B786314
S205000B795C1A
S205000B7AF481
S205000B7B0272
S205000B7C83F0
S205000B7D274B
S205000B7E0A67
S205000B7F0070
S205000B80630C
S205000B81D896
S205000B82F479
S205000B83026A
S205000B840368
S205000B852743
S205000B864A1F
S205000B870068
S205000B8883E4
S205000B89273F
S205000B8ACA9B
S205000B8B0064
S205000B8C3330
S205000B8D87DB
S205000B8EE47D
S205000B8F025E
S205000B90B3AC
S205000B9187D7
S205000B92E776
S205000B93005C
S205000B94B3A8
S205000B9587D3
S205000B96C792
S205000B970058
S205000B9883D4
S205000B99C591
S205000B9A074E
S205000B9B0054
S205000B9CB3A0
S205000B9DD57D
S205000B9ED57C
S205000B9F4010
S205000BA093BC
S205000BA1F559
S205000BA21538
S205000BA3004C
S205000BA4B398
S205000BA50545
S205000BA6B099
S205000BA74008
S205000BA893B4
S205000BA9F551
S205000BAA55F0
S205000BABFF45
S205000BAC93B0
S205000BAD85BD
S205000BAEE55C
S205000BAF023E
S205000BB0EF50
S205000BB1102E
S205000BB2003D
S205000BB36BD1
S205000BB483B8
S205000BB5A793
S205000BB68AAF
S205000BB70632
S205000BB81324
S205000BB90432
S205000BBA1421
S205000BBB0034
S205000BBCE350
S205000BBD44EE
S205000BBEF43D
S205000BBFFA36
S205000BC0131C
S205000BC185A9
S205000BC2C964
S205000BC31B11
S205000BC4EF3C
S205000BC5101A
S205000BC6C069
S205000BC769BF
S205000BC883A4
S205000BC9A77F
S205000BCA4ADB
S205000BCB061E
S205000BCC9390
S205000BCD849E
S205000BCE140D
S205000BCF0020
S205000BD0E33C
S205000BD1C45A
S205000BD2F429
S205000BD3F824
S205000BD40318
S205000BD524F6
S205000BD68198
S205000BD70117
S205000BD88394
S205000BD924F2
S205000BDA41D4
S205000BDB0113
S205000BDC0310
S205000BDD29E9
S205000BDE0110
S205000BDF010F
S205000BE0030C
S205000BE12AE4
S205000BE2818C
S205000BE3000C
S205000BE48388
S205000BE52AE0
S205000BE641C8
S205000BE70008
S205000BE88384
S205000BE920E6
S205000BEAC144
S205000BEB0103
S205000BEC13F0
S205000BED857D
S205000BEEC938
S205000BEF1BE5
S205000BF0837C
S205000BF129D5
S205000BF2C13C
S205000BF300FC
S205000BF413E8
S205000BF501F9
S205000BF601F8
S205000BF702F6
S205000BF86F88
S205000BF910E6
S205000BFA8075
S205000BFB668E
S205000BFC13E0
S205000BFD01F1
S205000BFE01F0
S205000BFFF8F8
S205000C0023CB
S205000C012CC1
S205000C02816B
S205000C0306E5
S205000C0437B3
S205000C0506E3
S205000C0610D8
S205000C0700E7
S205000C0813D3
S205000C098461
S205000C0A05DF
S205000C0B00E3
S205000C0CB72B
S205000C0D05DC
S205000C0E10D0
S205000C0F00DF
S205000C1013CB
S205000C1106D7
S205000C124696
S205000C1305D6
S205000C149347
S205000C158554
S205000C16C513
S205000C1706D1
S205000C1823B3
S205000C192AAB
S205000C1A9143
S205000C1B06CD
S205000C1C933F
S205000C1D04CD
S205000C1E05CB
S205000C1F00CF
S205000C2013BB
S205000C2105C8
S205000C2201CB
S205000C2301CA
S205000C2423A7
S205000C252E9B
S205000C2611B7
S205000C2706C1
S205000C2823A3
S205000C29289D
S205000C2A21A3
S205000C2B07BC
S205000C2C239F
S205000C2D269B
S205000C2E318F
S205000C2F07B8
S205000C30EFCF
S205000C3110AD
S205000C32803C
S205000C336C4F
S205000C3413A7
S205000C3505B4
S205000C3601B7
S205000C3701B6
S205000C38EFC7
S205000C3900B5
S205000C3AC0F4
S205000C3B644F
S205000C3C377B
S205000C3D05AC
S205000C3E10A0
S205000C3F00AF
S205000C40139B
S205000C4105A8
S205000C4205A7
S205000C4309A2
S205000C44EFBB
S205000C4500A9
S205000C4600A8
S205000C474760
S205000C481393
S205000C49099C
S205000C4A059F
S205000C4B00A3
S205000C4C376B
S205000C4D059C
S205000C4E1090
S205000C4F009F
S205000C50138B
S205000C510598
S205000C528517
S205000C53009B
S205000C54EFAB
S205000C551089
S205000C56C0D8
S205000C576037
S205000C589303
S205000C590590
S205000C5A0490
S205000C5B0093
S205000C5C137F
S205000C5D058C
S205000C5E0987
S205000C5F008F
S205000C60EF9F
S205000C61008D
S205000C62C0CC
S205000C634A41
S205000C6493F7
S205000C650584
S205000C664147
S205000C670087
S205000C681373
S205000C690580
S205000C6A097B
S205000C6B0083
S205000C6CEF93
S205000C6D0081
S205000C6E0080
S205000C6F4A35
S205000C70136B
S205000C710578
S205000C72413B
S205000C73007B
S205000C74EF8B
S205000C750079
S205000C7680F8
S205000C773A3D
S205000C782353
S205000C792253
S205000C7AA4D0
S205000C7B066D
S205000C7C93DF
S205000C7D056C
S205000C7E412F
S205000C7F006F
S205000C80135B
S205000C810568
S205000C820963
S205000C83006B
S205000C84EF7B
S205000C850069
S205000C8680E8
S205000C87481F
S205000C881353
S205000C890560
S205000C8A4123
S205000C8B0063
S205000C8CEF73
S205000C8D0061
S205000C8E0060
S205000C8F3926
S205000C90233B
S205000C912439
S205000C92A4B8
S205000C930655
S205000C9493C7
S205000C9577E2
S205000C9675E3
S205000C970057
S205000C9893C3
S205000C99064F
S205000C9A054F
S205000C9B0053
S205000C9C63EF
S205000C9D96BB
S205000C9E0749
S205000C9F0C43
S205000CA093BB
S205000CA157F6
S205000CA2F557
S205000CA3410A
S205000CA493B7
S205000CA5F752
S205000CA677D1
S205000CA70047
S205000CA8B393
S205000CA987BE
S205000CAAA79D
S205000CAB0043
S205000CAC93AF
S205000CADD76A
S205000CAE3709
S205000CAF40FF
S205000CB0033B
S205000CB12617
S205000CB244F8
S205000CB30635
S205000CB43703
S205000CB50534
S205000CB61028
S205000CB70037
S205000CB893A3
S205000CB90530
S205000CBA0430
S205000CBB0033
S205000CBC230F
S205000CBD260B
S205000CBEF43C
S205000CBF0629
S205000CC0131B
S205000CC10528
S205000CC2C567
S205000CC30229
S205000CC4EF3B
S205000CC51019
S205000CC6C068
S205000CC759CE
S205000CC883A3
S205000CC927FE
S205000CCA44E0
S205000CCB061D
S205000CCC031F
S205000CCD27FA
S205000CCEC45C
S205000CCF0619
S205000CD0839B
S205000CD126F7
S205000CD28498
S205000CD30615
S205000CD437E3
S205000CD50514
S205000CD61008
S205000CD70017
S205000CD833E3
S205000CD98491
S205000CDAE72D
S205000CDB0211
S205000CDC23EF
S205000CDDA46D
S205000CDED43C
S205000CDF000F
S205000CE0B757
S205000CE10607
S205000CE2000C
S205000CE340CB
S205000CE423E7
S205000CE5A069
S205000CE6F414
S205000CE70007
S205000CE823E3
S205000CE9A263
S205000CEAE420
S205000CEB0003
S205000CEC23DF
S205000CEDA65B
S205000CEED42C
S205000CEF00FF
S205000CF013EB
S205000CF105F8
S205000CF205F7
S205000CF30AF1
S205000CF4EF0B
S205000CF500F9
S205000CF600F8
S205000CF73CBB
S205000CF88373
S205000CF9A550
S205000CFAC430
S205000CFB00F3
S205000CFC935F
S205000CFD09E8
S205000CFE05EB
S205000CFF00EF
S205000D0037B6
S205000D0105E7
S205000D0210DB
S205000D0300EA
S205000D0413D6
S205000D0506E2
S205000D0604E3
S205000D0700E6
S205000D0813D2
S205000D0905DF
S205000D0A05DE
S205000D0B0BD7
S205000D0CEFF2
S205000D0D10D0
S205000D0E409F
S205000D0F5589
S205000D1003DA
S205000D11A636
S205000D12C417
S205000D1300DA
S205000D149346
S205000D1505D3
S205000D1604D3
S205000D1700D6
S205000D1813C2
S205000D19854F
S205000D1A09CA
S205000D1B00D2
S205000D1CEFE2
S205000D1D00D0
S205000D1E804F
S205000D1F4688
S205000D20EFDE
S205000D2100CC
S205000D22C00B
S205000D234783
S205000D2413B6
S205000D2504C4
S205000D2605C2
S205000D2700C6
S205000D28E3E2
S205000D290CB8
S205000D2A05BE
S205000D2BFEC4
S205000D2C13AE
S205000D2D853B
S205000D2E09B6
S205000D2F00BE
S205000D30EFCE
S205000D3100BC
S205000D3200BB
S205000D333B7F
S205000D3413A6
S205000D3505B3
S205000D3609AE
S205000D3700B6
S205000D38EFC6
S205000D3900B4
S205000D3A8033
S205000D3B3A78
S205000D3C377A
S205000D3D05AB
S205000D3E109F
S205000D3F00AE
S205000D40931A
S205000D4105A7
S205000D4204A7
S205000D4300AA
S205000D441396
S205000D4505A3
S205000D464562
S205000D470F97
S205000D48EFB6
S205000D491094
S205000D4A8023
S205000D4B5151
S205000D4C831E
S205000D4D2080
S205000D4EC1DE
S205000D4F0797
S205000D50039A
S205000D512478
S205000D52811A
S205000D530793
S205000D548316
S205000D552474
S205000D564156
S205000D57078F
S205000D580392
S205000D59296B
S205000D5A0192
S205000D5B078B
S205000D5C830E
S205000D5D2967
S205000D5EC1CE
S205000D5F0688
S205000D60137A
S205000D61018B
S205000D62018A
S205000D630882
S205000D646722
S205000D658008
S205000D660087
S205000D670086
S205000D6893F2
S205000D69572D
S205000D6AF58E
S205000D6B4141
S205000D6C93EE
S205000D6DF789
S205000D6E7708
S205000D6F007E
S205000D70B3CA
S205000D7187F5
S205000D72A7D4
S205000D73007A
S205000D7493E6
S205000D75D7A1
S205000D763740
S205000D774036
S205000D7893E2
S205000D7987ED
S205000D7A175C
S205000D7B0072
S205000D7C6F02
S205000D7DF080
S205000D7E5F10
S205000D7FF37B
S205000D80135A
S205000D81016B
S205000D82016A
S205000D83F377
S205000D842346
S205000D852642
S205000D861156
S205000D870C5A
S205000D882342
S205000D892440
S205000D8A81E2
S205000D8B0C56
S205000D8C233E
S205000D8D223E
S205000D8E91CE
S205000D8F0C52
S205000D90233A
S205000D91203C
S205000D92213A
S205000D930D4D
S205000D942336
S205000D952E2A
S205000D963126
S205000D970B4B
S205000D982332
S205000D992C28
S205000D9A4112
S205000D9B0B47
S205000D9CEF62
S205000D9D0050
S205000D9E80CF
S205000D9F4FFF
S205000DA093BA
S205000DA10547
S205000DA20546
S205000DA3004A
S205000DA43712
S205000DA50543
S205000DA61037
S205000DA70046
S205000DA81332
S205000DA9053F
S205000DAA85BE
S205000DAB1032
S205000DACEF52
S205000DAD1030
S205000DAE40FF
S205000DAF4BF3
S205000DB093AA
S205000DB10537
S205000DB2013A
S205000DB30436
S205000DB41326
S205000DB50533
S205000DB681B6
S205000DB70036
S205000DB8EF46
S205000DB9F044
S205000DBA5FD4
S205000DBBE44E
S205000DBC37FA
S205000DBD052B
S205000DBE101F
S205000DBF002E
S205000DC0939A
S205000DC10527
S205000DC2200B
S205000DC3002A
S205000DC41316
S205000DC50523
S205000DC645E2
S205000DC71214
S205000DC8EF36
S205000DC91014
S205000DCA80A3
S205000DCB49D9
S205000DCCEF32
S205000DCD0020
S205000DCE809F
S205000DCF23FB
S205000DD0EF2E
S205000DD1001C
S205000DD2809B
S205000DD324F6
S205000DD4EF2A
S205000DD50018
S205000DD6C057
S205000DD723F3
S205000DD89382
S205000DD90410
S205000DDA35DE
S205000DDB0012
S205000DDC13FE
S205000DDD0A06
S205000DDE20EF
S205000DDF000E
S205000DE013FA
S205000DE10408
S205000DE2000B
S205000DE3000A
S205000DE413F6
S205000DE509FF
S205000DE60007
S205000DE70006
S205000DE89372
S205000DE909FB
S205000DEA10F3
S205000DEB0002
S205000DEC936E
S205000DED05FB
S205000DEE01FE
S205000DEF04FA
S205000DF013EA
S205000DF105F7
S205000DF2817A
S205000DF300FA
S205000DF4EF0A
S205000DF5F008
S205000DF61FD8
S205000DF7AD49
S205000DF8EF06
S205000DF900F4
S205000DFA8073
S205000DFB21D1
S205000DFC13DE
S205000DFD05EB
S205000DFEE50A
S205000DFFFFEF
S205000E0033B9
S205000E0105E6
S205000E029555
S205000E0340A9
S205000E04B335
S205000E0507E0
S205000E06A442
S205000E0700E5
S205000E0813D1
S205000E09558E
S205000E0AF5ED
S205000E0B41A0
S205000E0C33AD
S205000E0DB728
S205000E0E8757
S205000E0F00DD
S205000E1033A9
S205000E1105D6
S205000E12A931
S205000E1300D9
S205000E1413C5
S205000E158453
S205000E1607CF
S205000E1700D5
S205000E1833A1
S205000E1909CA
S205000E1AA72B
S205000E1B00D1
S205000E1CEFE1
S205000E1D00CF
S205000E1EC00E
S205000E1F1FAE
S205000E20EFDD
S205000E2100CB
S205000E2200CA
S205000E231FAA
S205000E249335
S205000E2504C3
S205000E263591
S205000E2700C5
S205000E286361
S205000E2906BD
S205000E2A3A88
S205000E2B01C0
S205000E2C13AD
S205000E2D0AB5
S205000E2E10AE
S205000E2F00BD
S205000E306F4D
S205000E31F0CB
S205000E32DFDB
S205000E33FBBE
S205000E343781
S205000E3505B2
S205000E3610A6
S205000E3700B5
S205000E389321
S205000E3905AE
S205000E3A2092
S205000E3B00B1
S205000E3C139D
S205000E3D05AA
S205000E3EC5E9
S205000E3F1499
S205000E40EFBD
S205000E41109B
S205000E4200AA
S205000E434267
S205000E449315
S205000E4505A2
S205000E4601A5
S205000E4704A1
S205000E481391
S205000E49059E
S205000E4A8121
S205000E4B00A1
S205000E4C138D
S205000E4D0699
S205000E4E207E
S205000E4F009D
S205000E50EFAD
S205000E51F0AB
S205000E52DFBB
S205000E53CCCD
S205000E549305
S205000E555542
S205000E56F99D
S205000E574154
S205000E589301
S205000E59F59E
S205000E5A751D
S205000E5B0091
S205000E5C335D
S205000E5D840B
S205000E5E8509
S205000E5F008D
S205000E60B3D9
S205000E613556
S205000E62B4D6
S205000E630089
S205000E64B3D5
S205000E658502
S205000E662561
S205000E670184
S205000E6893F1
S205000E6997EC
S205000E6AD5AD
S205000E6B0180
S205000E6C136D
S205000E6D542B
S205000E6E344A
S205000E6F007D
S205000E703349
S205000E71E497
S205000E7287F3
S205000E730079
S205000E741365
S205000E750671
S205000E7681F5
S205000E770174
S205000E781361
S205000E79056E
S205000E7A046E
S205000E7B0071
S205000E7C93DD
S205000E7DD59A
S205000E7E3539
S205000E7F402D
S205000E80EF7D
S205000E81105B
S205000E82006A
S205000E835118
S205000E843731
S205000E850562
S205000E861056
S205000E870065
S205000E8893D1
S205000E89055E
S205000E8A81E1
S205000E8B0160
S205000E8C134D
S205000E8D0659
S205000E8E203E
S205000E8F005D
S205000E901349
S205000E910556
S205000E924515
S205000E931544
S205000E94EF69
S205000E951047
S205000E96C096
S205000E973C19
S205000E9893C1
S205000E9955FE
S205000E9AF45E
S205000E9B0150
S205000E9CB39D
S205000E9D85CA
S205000E9E85C9
S205000E9F004D
S205000EA01339
S205000EA10645
S205000EA281C9
S205000EA30148
S205000EA41335
S205000EA5D572
S205000EA61531
S205000EA74005
S205000EA893B1
S205000EA9D56E
S205000EAAF54D
S205000EAB4100
S205000EACEF51
S205000EAD102F
S205000EAE40FE
S205000EAF4EEF
S205000EB03705
S205000EB10536
S205000EB2102A
S205000EB30039
S205000EB493A5
S205000EB50532
S205000EB681B5
S205000EB70134
S205000EB81321
S205000EB9052E
S205000EBA052D
S205000EBB1918
S205000EBCEF41
S205000EBD101F
S205000EBE40EE
S205000EBF3AF3
S205000EC0EF3D
S205000EC1002B
S205000EC280AA
S205000EC33FEA
S205000EC483A5
S205000EC52007
S205000EC6C165
S205000EC70C19
S205000EC80321
S205000EC924FF
S205000ECA81A1
S205000ECB0C15
S205000ECC839D
S205000ECD24FB
S205000ECE41DD
S205000ECF0C11
S205000ED00319
S205000ED129F2
S205000ED20119
S205000ED30C0D
S205000ED48395
S205000ED529EE
S205000ED6C155
S205000ED70B0A
S205000ED80311
S205000ED92AE9
S205000EDA8191
S205000EDB0B06
S205000EDC13FD
S205000EDD050A
S205000EDE000E
S205000EDF000D
S205000EE013F9
S205000EE1010A
S205000EE20109
S205000EE30DFC
S205000EE467A1
S205000EE58087
S205000EE60006
S205000EE70005
S205000EE8B74D
S205000EE907FC
S205000EEA10F2
S205000EEB0001
S205000EEC37C9
S205000EED0FF0
S205000EEE10EE
S205000EEF00FD
S205000EF08379
S205000EF1AE4D
S205000EF207F3
S205000EF359A0
S205000EF403F5
S205000EF523D4
S205000EF68F67
S205000EF7599C
S205000EF89361
S205000EF908EB
S205000EFA00F2
S205000EFB10E1
S205000EFC935D
S205000EFDD817
S205000EFE18D6
S205000EFF00ED
S205000F0037B4
S205000F012EBC
S205000F0210D9
S205000F0300E8
S205000F049354
S205000F0507DF
S205000F0610D5
S205000F0700E4
S205000F089350
S205000F098F53
S205000F0A8859
S205000F0BFFE1
S205000F0C23BC
S205000F0DA03E
S205000F0EFEDF
S205000F0F00DC
S205000F109348
S205000F1105D5
S205000F1213C6
S205000F1300D8
S205000F149344
S205000F15884E
S205000F16785D
S205000F17FFD5
S205000F1813C0
S205000F1906CC
S205000F1A0EC3
S205000F1BB020
S205000F1C03CC
S205000F1D4886
S205000F1E4687
S205000F1F00CC
S205000F208348
S205000F214684
S205000F225673
S205000F2300C8
S205000F2403C4
S205000F25477F
S205000F26665F
S205000F2700C4
S205000F288340
S205000F29477B
S205000F2A764B
S205000F2B00C0
S205000F2C932C
S205000F2D9628
S205000F2E8637
S205000F2F00BC
S205000F30B308
S205000F31E6D4
S205000F3206B3
S205000F3301B7
S205000F3413A4
S205000F35179F
S205000F3607AE
S205000F3701B3
S205000F383380
S205000F39674B
S205000F3AD7DA
S205000F3B00B0
S205000F3C931C
S205000F3D9717
S205000F3E8726
S205000F3F01AB
S205000F40B3F8
S205000F41E7C3
S205000F42E7C2
S205000F4300A8
S205000F44E3C4
S205000F458C1A
S205000F46B7EE
S205000F47FCA8
S205000F486340
S205000F49148E
S205000F4A138E
S205000F4B019F
S205000F4CE3BC
S205000F4D8816
S205000F4E0796
S205000F4FFCA0
S205000F50B7E4
S205000F512773
S205000F521089
S205000F530098
S205000F549304
S205000F55870F
S205000F56870E
S205000F57B0E4
S205000F583360
S205000F59038F
S205000F5AF39E
S205000F5B0090
S205000F5C236C
S205000F5D2C62
S205000F5EBFCE
S205000F5F5834
S205000F602368
S205000F61008A
S205000F62A3E6
S205000F630088
S205000F646324
S205000F6596F0
S205000F66F590
S205000F670183
S205000F682360
S205000F692C56
S205000F6A0F72
S205000F6B5828
S205000F6C93EC
S205000F6D0579
S205000F6E007D
S205000F6F007C
S205000F7093E8
S205000F71F783
S205000F72F584
S205000F730F69
S205000F741364
S205000F75D79F
S205000F7685F0
S205000F770074
S205000F7883F0
S205000F79462C
S205000F7A0E63
S205000F7BB0C0
S205000F7C135C
S205000F7D77F7
S205000F7EF776
S205000F7F0F5D
S205000F802348
S205000F81006A
S205000F82FE6B
S205000F83B0B8
S205000F8493D4
S205000F85D78F
S205000F860560
S205000F870163
S205000F8883E0
S205000F89461C
S205000F8A1E43
S205000F8BB0B0
S205000F8C93CC
S205000F8DF767
S205000F8EF766
S205000F8F0F4D
S205000F90A3B8
S205000F91005A
S205000F92EE6B
S205000F93B0A8
S205000F940354
S205000F95470F
S205000F962E27
S205000F97B0A4
S205000F9893C0
S205000F99D57D
S205000F9A85CC
S205000F9B014F
S205000F9C232C
S205000F9D014D
S205000F9EFE4F
S205000F9FB09C
S205000FA083C8
S205000FA14703
S205000FA23E0B
S205000FA3B098
S205000FA4A3A4
S205000FA50145
S205000FA6BE87
S205000FA7B094
S205000FA82320
S205000FA9A0A2
S205000FAA0E33
S205000FAB0040
S205000FAC67D8
S205000FAD80BE
S205000FAE003D
S205000FAF003C
S205000FB03704
S205000FB10634
S205000FB21029
S205000FB30038
S205000FB493A4
S205000FB5072F
S205000FB60035
S205000FB71024
S205000FB837FC
S205000FB9270B
S205000FBA1021
S205000FBB0030
S205000FBC83AC
S205000FBD2608
S205000FBE46E7
S205000FBF59D3
S205000FC09398
S205000FC1D753
S205000FC21712
S205000FC30028
S205000FC41314
S205000FC5071F
S205000FC6071E
S205000FC7B074
S205000FC89390
S205000FC9859D
S205000FCA879A
S205000FCBFF21
S205000FCCB36C
S205000FCD8797
S205000FCEE736
S205000FCF001C
S205000FD00318
S205000FD1A773
S205000FD247D2
S205000FD30018
S205000FD4E334
S205000FD50E08
S205000FD6D73E
S205000FD7FE16
S205000FD81300
S205000FD9878B
S205000FDA868B
S205000FDB0010
S205000FDC33DC
S205000FDD8787
S205000FDEE726
S205000FDF000C
S205000FE00308
S205000FE145C5
S205000FE20702
S205000FE30008
S205000FE49374
S205000FE58680
S205000FE616EF
S205000FE70004
S205000FE823E0
S205000FE92AD8
S205000FEAD62B
S205000FEB58A8
S205000FEC13EC
S205000FED7589
S205000FEEF508
S205000FEF0FED
S205000FF06398
S205000FF19664
S205000FF2B643
S205000FF300F8
S205000FF423D4
S205000FF52ACC
S205000FF606EF
S205000FF7589C
S205000FF89360
S205000FF906EC
S205000FFA00F1
S205000FFB00F0
S205000FFC23CC
S205000FFDA04E
S205000FFED716
S205000FFF00EC
S2050010006783
S2050010018069
S20500100200E8
S20500100300E7
S2050010049353
S20500100507DE
S20500100610D4
S20500100700E3
S205001008736F
S2050010099051
S20500100A07D9
S20500100BCC13
S20500100C6777
S20500100D805D
S20500100E00DC
S20500100F00DB
S2050010107367
S20500101125B4
S20500101200D8
S205001013785F
S205001014676F
S2050010158055
S20500101600D4
S20500101700D3
S205001018676B
S2050010198051
S20500101A00D0
S20500101B00CF
S20500101C03CB
S20500101D4786
S20500101E05C7
S20500101F00CB
S2050010209337
S20500102107C2
S205001022D0F8
S20500102302C5
S2050010246363
S20500102506BF
S205001026F7CD
S20500102706BD
S205001028932F
S20500102907BA
S20500102A10B0
S20500102B00BF
S20500102C932B
S20500102D05B8
S20500102E10AC
S20500102F00BB
S2050010306357
S20500103108B1
S20500103207B1
S20500103306B1
S205001034B303
S20500103506AF
S205001036F5BF
S20500103700B3
S205001038139F
S20500103906AB
S20500103A9020
S20500103B00AF
S20500103C139B
S20500103D05A8
S20500103E00AC
S20500103F00AB
S2050010406F3B
S20500104100A9
S20500104200A8
S20500104301A6
S20500104403A3
S205001045C7DE
S205001046F6AE
S205001047FFA4
S205001048336F
S205001049851C
S20500104AA7F9
S20500104B009F
S20500104C633B
S20500104D0E8F
S20500104E0795
S20500104F0497
S2050010509307
S2050010511782
S2050010522573
S2050010530097
S2050010541383
S205001055078E
S205001056078D
S205001057FD96
S205001058B3DF
S205001059870A
S20500105AA7E9
S20500105B008F
S20500105C137B
S20500105D7518
S20500105EF795
S20500105F0F7C
S20500106093F7
S2050010618603
S2050010621672
S2050010630087
S20500106493F3
S20500106597EE
S205001066176D
S2050010670083
S205001068E39F
S2050010697E03
S20500106AA6DA
S20500106BFC83
S20500106C3747
S20500106D0578
S20500106E106C
S20500106F007B
S2050010701367
S2050010710178
S2050010720177
S205001073FF78
S2050010741363
S2050010750570
S205001076C5AF
S2050010771E55
S205001078234F
S205001079264B
S20500107A115F
S20500107B006F
S20500107CEF7F
S20500107D105D
S20500107E402C
S20500107F1E4D
S20500108083E7
S2050010812049
S205001082C1A7
S2050010830067
S2050010841353
S2050010850560
S2050010860064
S2050010870063
S205001088134F
S2050010890160
S20500108A015F
S20500108B015E
S20500108C67F7
S20500108D80DD
S20500108E005C
S20500108F005B
S2050010900357
S2050010914712
S2050010921543
S2050010930057
S20500109493C3
S205001095074E
S2050010962034
S2050010970053
S20500109893BF
S205001099054C
S20500109A0050
S20500109B004F
S20500109CE36B
S20500109D1C31
S20500109E0745
S20500109FF853
S2050010A01337
S2050010A10544
S2050010A20048
S2050010A30047
S2050010A467DF
S2050010A580C5
S2050010A60044
S2050010A70043
