S00F000063676F6C5F786C722E7331398B
S20500000013E7
S20500000100F9
S20500000200F8
S20500000300F7
S20500000413E3
S20500000500F5
S20500000600F4
S20500000700F3
S20500000813DF
S20500000900F1
S20500000A00F0
S20500000B00EF
S20500000C13DB
S20500000D00ED
S20500000E00EC
S20500000F00EB
S20500001013D7
S20500001100E9
S20500001200E8
S20500001300E7
S20500001413D3
S20500001500E5
S20500001600E4
S20500001700E3
S20500001813CF
S20500001900E1
S20500001A00E0
S20500001B00DF
S20500001C13CB
S20500001D00DD
S20500001E00DC
S20500001F00DB
S20500002013C7
S20500002100D9
S20500002200D8
S20500002300D7
S20500002413C3
S20500002500D5
S20500002600D4
S20500002700D3
S20500002813BF
S20500002900D1
S20500002A00D0
S20500002B00CF
S20500002C13BB
S20500002D00CD
S20500002E00CC
S20500002F00CB
S20500003013B7
S20500003100C9
S20500003200C8
S20500003300C7
S20500003413B3
S20500003500C5
S20500003600C4
S20500003700C3
S20500003813AF
S20500003900C1
S20500003A00C0
S20500003B00BF
S20500003C13AB
S20500003D00BD
S20500003E00BC
S20500003F00BB
S20500004013A7
S20500004100B9
S20500004200B8
S20500004300B7
S20500004413A3
S20500004500B5
S20500004600B4
S20500004700B3
S205000048139F
S20500004900B1
S20500004A00B0
S20500004B00AF
S20500004C139B
S20500004D00AD
S20500004E00AC
S20500004F00AB
S2050000501397
S20500005100A9
S20500005200A8
S20500005300A7
S2050000541393
S20500005500A5
S20500005600A4
S20500005700A3
S205000058138F
S20500005900A1
S20500005A00A0
S20500005B009F
S20500005C138B
S20500005D009D
S20500005E009C
S20500005F009B
S2050000601387
S2050000610099
S2050000620098
S2050000630097
S2050000641383
S2050000650095
S2050000660094
S2050000670093
S205000068137F
S2050000690091
S20500006A0090
S20500006B008F
S20500006C137B
S20500006D008D
S20500006E008C
S20500006F008B
S2050000701377
S2050000710089
S2050000720088
S2050000730087
S2050000741373
S2050000750085
S2050000760084
S2050000770083
S205000078136F
S2050000790081
S20500007A0080
S20500007B007F
S20500007C136B
S20500007D007D
S20500007E007C
S20500007F007B
S2050000806F0B
S2050000810079
S2050000824038
S2050000830077
S20500008493E3
S2050000850075
S2050000860074
S2050000870073
S205000088135F
S20500008981F0
S20500008A0070
S20500008B006F
S20500008C93DB
S20500008D81EC
S20500008E006C
S20500008F006B
S2050000901357
S20500009182E7
S2050000920068
S2050000930067
S20500009493D3
S20500009582E3
S2050000960064
S2050000970063
S205000098134F
S20500009983DE
S20500009A0060
S20500009B005F
S20500009C93CB
S20500009D83DA
S20500009E005C
S20500009F005B
S2050000A01347
S2050000A184D5
S2050000A20058
S2050000A30057
S2050000A493C3
S2050000A584D1
S2050000A60054
S2050000A70053
S2050000A8133F
S2050000A985CC
S2050000AA0050
S2050000AB004F
S2050000AC93BB
S2050000AD85C8
S2050000AE004C
S2050000AF004B
S2050000B01337
S2050000B186C3
S2050000B20048
S2050000B30047
S2050000B493B3
S2050000B586BF
S2050000B60044
S2050000B70043
S2050000B8132F
S2050000B987BA
S2050000BA0040
S2050000BB003F
S2050000BC93AB
S2050000BD87B6
S2050000BE003C
S2050000BF003B
S2050000C01327
S2050000C188B1
S2050000C20038
S2050000C30037
S2050000C493A3
S2050000C588AD
S2050000C60034
S2050000C70033
S2050000C8131F
S2050000C989A8
S2050000CA0030
S2050000CB002F
S2050000CC939B
S2050000CD89A4
S2050000CE002C
S2050000CF002B
S2050000D01317
S2050000D18A9F
S2050000D20028
S2050000D30027
S2050000D49393
S2050000D58A9B
S2050000D60024
S2050000D70023
S2050000D8130F
S2050000D98B96
S2050000DA0020
S2050000DB001F
S2050000DC938B
S2050000DD8B92
S2050000DE001C
S2050000DF001B
S2050000E01307
S2050000E18C8D
S2050000E20018
S2050000E30017
S2050000E49383
S2050000E58C89
S2050000E60014
S2050000E70013
S2050000E813FF
S2050000E98D84
S2050000EA0010
S2050000EB000F
S2050000EC937B
S2050000ED8D80
S2050000EE000C
S2050000EF000B
S2050000F013F7
S2050000F18E7B
S2050000F20008
S2050000F30007
S2050000F49373
S2050000F58E77
S2050000F60004
S2050000F70003
S2050000F813EF
S2050000F98F72
S2050000FA0000
S2050000FB00FF
S2050000FC936B
S2050000FD8F6E
S2050000FE00FC
S2050000FF00FB
S20500010017E2
S20500010121D7
S20500010210E7
S20500010300F6
S20500010413E2
S20500010501F3
S20500010601F2
S2050001079F53
S20500010817DA
S2050001090DE3
S20500010A10DF
S20500010B00EE
S20500010C13DA
S20500010D0DDF
S20500010ECD1E
S20500010F48A2
S2050001109752
S2050001110DDB
S20500011210D7
S20500011300E6
S2050001149352
S2050001158D57
S2050001168D56
S2050001175092
S205000118637E
S2050001195888
S20500011ABD22
S20500011B01DD
S20500011C23BA
S20500011D20BC
S20500011E0DCE
S20500011F00DA
S20500012013C6
S2050001210DCB
S2050001224D8A
S20500012300D6
S205000124E3F2
S205000125DCF8
S205000126AD26
S205000127FFD3
S205000128EFE2
S20500012900D0
S20500012AC00F
S20500012B0CC2
S20500012C13BA
S20500012D05C7
S20500012E00CB
S20500012F00CA
S2050001309336
S20500013105C3
S20500013200C7
S20500013300C6
S205000134EFD6
S20500013500C4
S205000136D0F3
S2050001377A48
S205000138EFD2
S20500013900C0
S20500013A00BF
S20500013B00BE
S20500013C6756
S20500013D803C
S20500013E00BB
S20500013F00BA
S2050001406356
S2050001414078
S20500014205B2
S20500014306B0
S2050001446352
S205000145C6EE
S20500014605AE
S20500014706AC
S205000148139E
S205000149862A
S20500014A05AA
S20500014B00AE
S20500014C931A
S20500014D05A7
S20500014E05A6
S20500014F00AA
S2050001501396
S20500015105A3
S205000152F0B7
S205000153FFA7
S2050001546342
S2050001550C98
S205000156069D
S20500015702A0
S205000158930E
S205000159069A
S20500015A108F
S20500015B009E
S20500015C633A
S20500015D7A22
S20500015EB6E5
S20500015F009A
S2050001606336
S2050001615840
S205000162C0D7
S2050001630096
S2050001641382
S205000165167E
S205000166167D
S2050001670092
S20500016893FE
S20500016996FA
S20500016A1679
S20500016B008E
S20500016CE3AA
S20500016D6A22
S20500016EB6D5
S20500016FFE8C
S2050001701376
S2050001710583
S2050001720087
S2050001730086
S2050001746322
S205000175E69E
S205000176C5BE
S2050001770082
S205000178B3CE
S20500017985FB
S20500017AC5BA
S20500017B403E
S20500017C334A
S20500017D6517
S20500017ED5A6
S20500017F007A
S20500018093E6
S205000181D6A2
S2050001821661
S2050001830076
S2050001841362
S205000185561E
S205000186165D
S2050001870072
S205000188E38E
S20500018996DA
S20500018A0669
S20500018BFE70
S20500018C6706
S20500018D80EC
S20500018E006B
S20500018F006A
S20500019093D6
S20500019182E6
S2050001920067
S2050001930066
S205000194EF76
S205000195F074
S2050001965F04
S205000197FB67
S205000198134E
S20500019985DB
S20500019A055A
S20500019B005E
S20500019C67F6
S20500019D80DC
S20500019E0259
S20500019F005A
S2050001A03326
S2050001A10553
S2050001A2A0B7
S2050001A34016
S2050001A463F2
S2050001A5480C
S2050001A6B0A3
S2050001A70052
S2050001A8B39E
S2050001A9054B
S2050001AAB09F
S2050001AB400E
S2050001AC6FDE
S2050001ADF05C
S2050001AEDF6C
S2050001AFF951
S2050001B0B396
S2050001B10543
S2050001B2B097
S2050001B34006
S2050001B493B2
S2050001B582C2
S2050001B60043
S2050001B70042
S2050001B8EF52
S2050001B9F050
S2050001BA1F20
S2050001BBF945
S2050001BC330A
S2050001BD0537
S2050001BEA09B
S2050001BF40FA
S2050001C067D2
S2050001C180B8
S2050001C20235
S2050001C30036
S2050001C493A2
S2050001C582B2
S2050001C60033
S2050001C70032
S2050001C863CE
S2050001C9CA66
S2050001CA052A
S2050001CB002E
S2050001CC63CA
S2050001CD4CE0
S2050001CE0526
S2050001CF002A
S2050001D0EF3A
S2050001D1F038
S2050001D29F88
S2050001D3F72F
S2050001D41312
S2050001D5859F
S2050001D6051E
S2050001D70022
S2050001D867BA
S2050001D980A0
S2050001DA021D
S2050001DB001E
S2050001DCB36A
S2050001DD0517
S2050001DEB06B
S2050001DF40DA
S2050001E0E336
S2050001E158C0
S2050001E20512
S2050001E3FE18
S2050001E433E2
S2050001E5050F
S2050001E6A073
S2050001E740D2
S2050001E8EF22
S2050001E9F020
S2050001EA1FF0
S2050001EBF618
S2050001EC33DA
S2050001ED0507
S2050001EEB05B
S2050001EF40CA
S2050001F067A2
S2050001F18088
S2050001F20205
S2050001F30006
S2050001F413F2
S2050001F50103
S2050001F60102
S2050001F7FF03
S2050001F823DE
S2050001F924DC
S2050001FA817E
S2050001FB00FE
S2050001FC23DA
S2050001FD20DC
S2050001FE21DA
S2050001FF01F9
S2050002009761
S20500020107F0
S20500020210E6
S20500020300F5
S2050002049361
S205000205876C
S20500020607EB
S205000207E011
S20500020817D9
S20500020904EB
S20500020A10DE
S20500020B00ED
S20500020C13D9
S20500020D04E7
S20500020E8466
S20500020FDF0A
S20500021023C5
S20500021126C1
S20500021211D5
S20500021300E5
S20500021423C1
S20500021522C1
S2050002169151
S20500021700E1
S20500021833AD
S2050002198956
S20500021A8757
S20500021B409D
S20500021C6379
S20500021D805B
S20500021E8753
S20500021F02D7
S20500022013C5
S205000221597E
S20500022229AD
S2050002234095
S2050002249341
S20500022504CF
S20500022600D2
S20500022700D1
S205000228834D
S20500022927A8
S20500022A04CA
S20500022B00CD
S20500022C9339
S20500022D8447
S20500022E14B6
S20500022F00C9
S20500023013B5
S20500023104C3
S2050002324482
S20500023300C5
S205000234E7DD
S2050002358043
S20500023607BB
S20500023700C1
S205000238E3DD
S205000239E8D7
S20500023A249A
S20500023BFFBE
S20500023C9725
S20500023D07B4
S20500023E10AA
S20500023F00B9
S2050002409325
S2050002418730
S205000242476F
S205000243DCD9
S205000244179D
S20500024504AF
S20500024610A2
S20500024700B1
S205000248139D
S20500024904AB
S20500024AC4EA
S20500024BDBD2
S20500024C3379
S20500024D8922
S20500024E8723
S20500024F4069
S2050002501395
S205000251594E
S205000252297D
S2050002534065
S2050002546341
S2050002558E15
S205000256871B
S20500025700A1
S205000258930D
S205000259049B
S20500025A009E
S20500025B009D
S20500025C8319
S20500025D2774
S20500025E0496
S20500025F0099
S2050002609305
S2050002618413
S2050002621482
S2050002630095
S2050002641381
S205000265048F
S205000266444E
S2050002670091
S205000268E7A9
S205000269800F
S20500026A0787
S20500026B008D
S20500026CE3A9
S20500026DE8A3
S20500026E2466
S20500026FFF8A
S2050002708305
S2050002712067
S205000272C1C5
S2050002730085
S2050002740381
S205000275245F
S2050002768101
S2050002770081
S20500027883FD
S205000279245B
S20500027A413D
S20500027B007D
S20500027C0379
S20500027D2952
S20500027E0179
S20500027F0079
S2050002801365
S2050002810176
S2050002820175
S2050002830174
S205000284670D
S20500028580F3
S2050002860072
S2050002870071
S205000288135D
S205000289036C
S20500028AF07E
S20500028B006D
S20500028C1359
S20500028D0764
S20500028E0565
S20500028F0069
S2050002906305
S2050002917EE9
S205000292C3A3
S2050002930263
S20500029493D1
S20500029577EC
S205000296F76B
S2050002970061
S20500029863FD
S20500029990CF
S20500029A0757
S20500029B0A53
S20500029C63F9
S20500029D92C9
S20500029E0555
S20500029F0851
S2050002A093C5
S2050002A176E1
S2050002A20650
S2050002A3FF56
S2050002A41341
S2050002A576DD
S2050002A6F65C
S2050002A70051
S2050002A8B39D
S2050002A986C9
S2050002AAE668
S2050002AB004D
S2050002AC2329
S2050002AD202B
S2050002AEB793
S2050002AF0049
S2050002B02325
S2050002B12225
S2050002B2B78F
S2050002B30045
S2050002B42321
S2050002B5241F
S2050002B6B78B
S2050002B70041
S2050002B8231D
S2050002B92619
S2050002BAB787
S2050002BB003D
S2050002BC1329
S2050002BD0734
S2050002BE0733
S2050002BF0138
S2050002C0E355
S2050002C166D1
S2050002C2D75F
S2050002C3FE37
S2050002C463D1
S2050002C5141F
S2050002C6062C
S2050002C70031
S2050002C867C9
S2050002C980AF
S2050002CA002E
S2050002CB002D
S2050002CCB379
S2050002CD0625
S2050002CEC367
S2050002CF40E9
S2050002D09395
S2050002D19691
S2050002D22600
S2050002D30025
S2050002D4978D
S2050002D50221
S2050002D60022
S2050002D70021
S2050002D8B36D
S2050002D98699
S2050002DA56C8
S2050002DB001D
S2050002DC67B5
S2050002DD809B
S2050002DEC654
S2050002DF0019
S2050002E023F5
S2050002E10710
S2050002E2B75F
S2050002E30015
S2050002E4A371
S2050002E5060D
S2050002E6B75B
S2050002E70011
S2050002E823ED
S2050002E90609
S2050002EAB757
S2050002EB000D
S2050002ECA369
S2050002ED0506
S2050002EEB753
S2050002EF0009
S2050002F023E5
S2050002F10502
S2050002F2B74F
S2050002F30005
S2050002F4A361
S2050002F504FF
S2050002F6B74B
S2050002F70001
S2050002F823DD
S2050002F904FB
S2050002FAB747
S2050002FB00FD
S2050002FCA359
S2050002FD03F8
S2050002FEB743
S2050002FF00F9
S20500030023D4
S20500030103F3
S205000302B73E
S20500030300F4
S205000304A350
S20500030502F0
S205000306B73A
S20500030700F0
S20500030823CC
S20500030902EC
S20500030AB736
S20500030B00EC
S20500030CA348
S20500030D01E9
S20500030EB732
S20500030F00E8
S20500031023C4
S20500031101E5
S205000312B72E
S20500031300E4
S205000314A340
S20500031500E2
S205000316B72A
S20500031700E0
S20500031823BC
S20500031900DE
S20500031AB726
S20500031B00DC
S20500031C6774
S20500031D805A
S20500031E00D9
S20500031F00D8
S2050003209344
S205000321F5E1
S205000322F5E0
S2050003230FC5
S2050003249340
S205000325963C
S205000326854C
S20500032700D0
S205000328B31C
S205000329E5E9
S20500032AD5F8
S20500032B00CC
S20500032C9338
S20500032D9634
S20500032E05C4
S20500032F01C7
S205000330B314
S205000331E5E1
S205000332D5F0
S20500033300C4
S2050003346F54
S205000335F0D2
S205000336DFE2
S205000337F6CA
S205000338932C
S2050003399628
S20500033A2796
S20500033B00BC
S20500033C9724
S20500033D02B8
S20500033E00B9
S20500033F00B8
S205000340B304
S2050003418630
S205000342565F
S20500034300B4
S2050003449320
S2050003458230
S20500034600B1
S20500034700B0
S205000348E7C8
S205000349802E
S20500034A06A7
S20500034BFAB2
S20500034C9318
S20500034D802A
S20500034E02A7
S20500034F00A8
S2050003509314
S205000351871F
S205000352079E
S205000353FFA5
S2050003543370
S205000355079B
S205000356F7AA
S2050003574060
S205000358336C
S2050003590698
S20500035AF6A7
S20500035B009C
S20500035CE3B8
S20500035D7822
S20500035EC3D6
S20500035FF6A2
S2050003606F28
S205000361F0A6
S205000362DFB6
S205000363F3A1
S205000364B3E0
S205000365C7CB
S205000366A5EC
S2050003670090
S20500036893FC
S205000369F797
S20500036A3756
S20500036B008C
S20500036CB3D8
S20500036D0882
S20500036EC5C4
S20500036F0088
S2050003706324
S20500037194F2
S205000372077E
S205000373067E
S20500037493F0
S205000375077B
S2050003763051
S2050003770080
S205000378631C
S205000379F08E
S20500037AC7B6
S20500037B0676
S20500037C93E8
S20500037D7703
S20500037E3544
S20500037F0078
S2050003801364
S205000381076F
S2050003820570
S2050003830074
S2050003846310
S2050003859AD8
S205000386076A
S205000387066A
S205000388135C
S205000389F678
S20500038AC8A5
S20500038BFF6D
S20500038CB3B8
S20500038D0664
S20500038EE683
S20500038F4028
S20500039093D4
S205000391075F
S2050003920065
S2050003930262
S2050003946300
S205000395CE94
S205000396D78A
S2050003970858
S20500039893CC
S20500039986D8
S20500039A0558
S20500039B005C
S20500039C93C8
S20500039D0753
S20500039E0752
S20500039F0058
S2050003A063F4
S2050003A178DE
S2050003A2C78E
S2050003A30252
S2050003A40350
S2050003A5A8AA
S2050003A6064B
S2050003A70050
S2050003A893BC
S2050003A987C7
S2050003AA4706
S2050003AB004C
S2050003AC93B8
S2050003AD86C4
S2050003AE4603
S2050003AF0048
S2050003B02324
S2050003B1AE98
S2050003B2073E
S2050003B3FF45
S2050003B4E360
S2050003B5E85A
S2050003B6C77A
S2050003B7FE42
S2050003B893AC
S2050003B90737
S2050003BAF647
S2050003BBFF3D
S2050003BCB388
S2050003BD87B3
S2050003BEE752
S2050003BF40F8
S2050003C093A4
S2050003C1F73F
S2050003C2C76E
S2050003C3FF35
S2050003C493A0
S2050003C587AB
S2050003C647EA
S2050003C70030
S2050003C833FC
S2050003C90727
S2050003CAF736
S2050003CB002C
S2050003CCB378
S2050003CD85A5
S2050003CEF534
S2050003CF0028
S2050003D063C4
S2050003D168BE
S2050003D2170E
S2050003D30123
S2050003D467BC
S2050003D580A2
S2050003D60021
S2050003D70020
S2050003D8130C
S2050003D90717
S2050003DA0518
S2050003DB001C
S2050003DC63B8
S2050003DD78A2
S2050003DE1504
S2050003DF0513
S2050003E08394
S2050003E1C74F
S2050003E20510
S2050003E30014
S2050003E41300
S2050003E5070B
S2050003E617FA
S2050003E70010
S2050003E8937C
S2050003E98589
S2050003EA15F8
S2050003EB000C
S2050003ECA368
S2050003ED0FFB
S2050003EEF712
S2050003EFFE0A
S2050003F0E324
S2050003F1986E
S2050003F2E81D
S2050003F3FE06
S2050003F4679C
S2050003F58082
S2050003F60001
S2050003F70000
S2050003F8837C
S2050003F9C638
S2050003FA05F8
S2050003FB00FC
S2050003FC13E8
S2050003FD07F3
S2050003FE17E2
S2050003FF00F8
S2050004009363
S205000401777E
S20500040237BD
S20500040300F3
S205000404A34F
S2050004050FE2
S205000406D719
S205000407FEF1
S205000408935B
S2050004098568
S20500040A15D7
S20500040B00EB
S20500040CE307
S20500040D8E5B
S20500040E07E1
S20500040FF6F1
S2050004108363
S205000411C61F
S20500041205DF
S20500041300E3
S20500041413CF
S20500041507DA
S20500041617C9
S20500041700DF
S205000418934B
S2050004197766
S20500041A37A5
S20500041B00DB
S20500041CA337
S20500041D0FCA
S20500041ED701
S20500041FFED9
S2050004209343
S2050004218550
S20500042215BF
S20500042300D3
S205000424E3EF
S2050004259A37
S20500042607C9
S205000427FCD3
S2050004286F5F
S205000429F0DD
S20500042A1FAD
S20500042BF6D5
S20500042C6763
S20500042D8049
S20500042E00C8
S20500042F00C7
S20500043013B3
S20500043101C4
S20500043201C3
S205000433FFC4
S205000434239F
S205000435269B
S205000436813F
S20500043700BF
S20500043813AB
S20500043904B9
S20500043A00BC
S20500043B02B9
S20500043C8337
S20500043DA316
S20500043E05B3
S20500043F00B7
S2050004408333
S205000441A213
S205000442456F
S20500044300B3
S205000444832F
S205000445AF02
S205000446852B
S20500044700AF
S20500044803AB
S205000449AFFE
S20500044AC5E7
S20500044B00AB
S20500044C8327
S20500044DAEFB
S20500044E05A3
S20500044F01A6
S20500045003A3
S205000451AEF7
S205000452455F
S20500045301A2
S205000454039F
S205000455A3FE
S205000456851B
S205000457019E
S205000458039B
S205000459A8F5
S20500045AC5D7
S20500045B019A
S20500045C8317
S20500045DA6F3
S20500045E0593
S20500045F0295
S2050004601383
S205000461078E
S205000462474D
S2050004630291
S205000464B3DF
S205000465078A
S205000466E6AA
S205000467404F
S205000468236B
S2050004692E5F
S20500046A7715
S20500046BFC8F
S20500046C2367
S20500046D2069
S20500046E5731
S20500046FFE89
S2050004702363
S2050004712263
S205000472F78D
S205000473FF84
S205000474235F
S205000475245D
S205000476E799
S205000477FF80
S205000478235B
S2050004792657
S20500047AD7A5
S20500047BFF7C
S20500047C2357
S20500047D2851
S20500047EC7B1
S20500047FFF78
S2050004802353
S2050004812A4B
S205000482670D
S205000483FE75
S205000484234F
S2050004852C45
S2050004860769
S205000487FF70
S205000488234B
S2050004892E3F
S20500048AD795
S20500048BFE6D
S20500048C93D7
S20500048D85E4
S20500048E4523
S20500048F0265
S205000490E383
S205000491461F
S205000492F470
S205000493FA69
S20500049493CF
S20500049586DB
S205000496055B
S205000497005F
S20500049893CB
S2050004990756
S20500049A0755
S20500049B005B
S20500049C63F7
S20500049D78E1
S20500049EC791
S20500049F0255
S2050004A00353
S2050004A1A8AD
S2050004A2064E
S2050004A30053
S2050004A493BF
S2050004A587CA
S2050004A64709
S2050004A7004F
S2050004A893BB
S2050004A986C7
S2050004AA4606
S2050004AB004B
S2050004AC2327
S2050004ADAE9B
S2050004AE0741
S2050004AFFF48
S2050004B0E363
S2050004B1E85D
S2050004B2C77D
S2050004B3FE45
S2050004B493AF
S2050004B5073A
S2050004B6F64A
S2050004B7FF40
S2050004B8B38B
S2050004B987B6
S2050004BAE755
S2050004BB40FB
S2050004BC93A7
S2050004BDF742
S2050004BEC771
S2050004BFFF38
S2050004C093A3
S2050004C187AE
S2050004C247ED
S2050004C30033
S2050004C433FF
S2050004C5072A
S2050004C6F739
S2050004C7002F
S2050004C8B37B
S2050004C985A8
S2050004CAF537
S2050004CB002B
S2050004CC63C7
S2050004CD68C1
S2050004CE1711
S2050004CF0126
S2050004D00323
S2050004D12401
S2050004D2C163
S2050004D30023
S2050004D4130F
S2050004D50120
S2050004D6011F
S2050004D7011E
S2050004D867B7
S2050004D9809D
S2050004DA001C
S2050004DB001B
S2050004DC8397
S2050004DDC752
S2050004DE0513
S2050004DF0017
S2050004E01303
S2050004E1070E
S2050004E217FD
S2050004E30013
S2050004E4937F
S2050004E5858C
S2050004E615FB
S2050004E7000F
S2050004E8A36B
S2050004E90FFE
S2050004EAF715
S2050004EBFE0D
S2050004ECE327
S2050004ED8287
S2050004EEE820
S2050004EFFE09
S2050004F08383
S2050004F1C73E
S2050004F205FF
S2050004F30003
S2050004F413EF
S2050004F507FA
S2050004F617E9
S2050004F700FF
S2050004F8936B
S2050004F98578
S2050004FA15E7
S2050004FB00FB
S2050004FCA357
S2050004FD0FEA
S2050004FEF701
S2050004FFFEF9
S205000500E312
S2050005019E56
S205000502E80B
S205000503FCF6
S2050005046F82
S205000505F000
S205000506DF10
S205000507FCF2
S20500050800ED
S20500050900EC
S20500050A00EB
S20500050B00EA
S20500050C00E9
S20500050D00E8
S20500050E00E7
S20500050F00E6
S20500051000E5
S20500051100E4
S20500051200E3
S20500051300E2
S20500051400E1
S20500051500E0
S20500051600DF
S20500051700DE
S20500051813CA
S20500051901DB
S20500051A01DA
S20500051BFEDC
S20500051C23B6
S20500051D22B6
S20500051E5186
S20500051F01D5
S205000520B71E
S2050005210ACA
S20500052210C3
S20500052300D2
S205000524933E
S2050005258A46
S2050005264A85
S2050005275975
S20500052803CA
S205000529A329
S20500052A4A81
S20500052B00CA
S20500052C8346
S20500052DA820
S20500052ECAFD
S20500052F00C6
S205000530B70E
S20500053107BD
S20500053210B3
S20500053300C2
S205000534239E
S2050005352A96
S205000536912E
S20500053700BE
S205000538239A
S205000539A616
S20500053A17A4
S20500053B6159
S20500053CB306
S20500053D8434
S20500053E684F
S20500053F00B6
S205000540B7FE
S20500054107AD
S20500054210A3
S20500054300B2
S20500054403AE
S205000545268A
S205000546456A
S20500054700AE
S205000548238A
S2050005492C80
S20500054A812A
S20500054B00AA
S20500054C2386
S20500054DA404
S20500054E9710
S20500054F6046
S2050005503372
S2050005518420
S205000552643F
S20500055300A2
S205000554B7EA
S2050005550799
S205000556108F
S205000557009E
S205000558237A
S2050005592874
S20500055A217A
S20500055B0199
S20500055C2376
S20500055D2672
S20500055E3166
S20500055F0195
S2050005602372
S2050005612470
S2050005624152
S2050005630191
S205000564236E
S2050005652E62
S205000566117E
S205000567008E
S205000568236A
S205000569A2EA
S20500056A8704
S20500056B602A
S20500056C1376
S20500056D0A7E
S20500056E0582
S20500056F0086
S20500057093F2
S205000571097B
S2050005720380
S2050005730082
S205000574136E
S2050005751967
S205000576136C
S205000577007E
S205000578631A
S2050005795C20
S20500057AC0BB
S20500057B007A
S20500057C1366
S20500057D85F3
S20500057E086F
S20500057F0076
S20500058093E2
S205000581056F
S2050005820073
S2050005830072
S205000584EF82
S205000585F080
S2050005865F10
S205000587D09E
S205000588036A
S205000589A3C9
S20500058A4A21
S20500058B006A
S20500058C93D6
S20500058D0860
S20500058E0562
S20500058F0066
S2050005900362
S205000591283C
S205000592CA99
S2050005930062
S205000594134E
S205000595550B
S205000596F36C
S205000597411D
S20500059893CA
S20500059975E7
S20500059A3526
S20500059B005A
S20500059CB3A6
S20500059D85D3
S20500059E65F2
S20500059F0056
S2050005A01342
S2050005A1064E
S2050005A23023
S2050005A30052
S2050005A493BE
S2050005A5D57B
S2050005A6252A
S2050005A7400E
S2050005A893BA
S2050005A90646
S2050005AA0843
S2050005AB004A
S2050005AC1336
S2050005AD87C1
S2050005AE0443
S2050005AF0046
S2050005B093B2
S2050005B1073D
S2050005B20043
S2050005B30042
S2050005B463DE
S2050005B556EA
S2050005B666D9
S2050005B7221C
S2050005B8033A
S2050005B9A696
S2050005BA0635
S2050005BB003A
S2050005BC93A6
S2050005BD87B1
S2050005BE1720
S2050005BF0036
S2050005C093A2
S2050005C186AE
S2050005C246ED
S2050005C30032
S2050005C4230E
S2050005C52010
S2050005C6C768
S2050005C7002E
S2050005C8131A
S2050005C90725
S2050005CA47E4
S2050005CB002A
S2050005CCE346
S2050005CDC662
S2050005CEB770
S2050005CFFE28
S2050005D09392
S2050005D1958F
S2050005D225FE
S2050005D30022
S2050005D463BE
S2050005D5DC44
S2050005D665BA
S2050005D70A14
S2050005D8130A
S2050005D955C7
S2050005DAE536
S2050005DB0119
S2050005DC33E6
S2050005DD0612
S2050005DEA374
S2050005DF0016
S2050005E01302
S2050005E1769E
S2050005E236DD
S2050005E30012
S2050005E433DE
S2050005E5060A
S2050005E6A669
S2050005E740CE
S2050005E813FA
S2050005E90705
S2050005EAF615
S2050005EBFF0B
S2050005EC9376
S2050005ED0701
S2050005EE60A7
S2050005EF0006
S2050005F013F2
S2050005F1857F
S2050005F205FE
S2050005F30002
S2050005F4639E
S2050005F5FA06
S2050005F6E718
S2050005F71EE0
S2050005F8B34A
S2050005F98775
S2050005FAB942
S2050005FB00FA
S2050005FC9366
S2050005FD8672
S2050005FE15E2
S2050005FF00F6
S205000600B341
S205000601876C
S205000602F8FA
S20500060300F1
S205000604B33D
S20500060506E9
S205000606D816
S20500060700ED
S205000608B339
S2050006098665
S20500060AD713
S20500060B40A9
S20500060C9355
S20500060DB631
S20500060E36B0
S20500060F00E5
S20500061033B1
S20500061107DC
S205000612B82A
S20500061300E1
S205000614637D
S2050006159A45
S20500061606D8
S2050006171CC1
S205000618B329
S205000619E6F5
S20500061AE7F3
S20500061B00D9
S20500061C9345
S20500061DF6E1
S20500061E36A0
S20500061F00D5
S2050006206371
S205000621943F
S20500062206CC
S2050006231CB5
S20500062413BD
S2050006257E51
S205000626C608
S205000627FFCE
S2050006283399
S20500062905C6
S20500062AC703
S20500062B01C8
S20500062C8345
S20500062D26A1
S20500062E07BF
S20500062F00C5
S20500063013B1
S20500063107BC
S205000632477B
S20500063300C1
S205000634932D
S2050006358738
S2050006364777
S20500063700BD
S2050006382399
S205000639AE0D
S20500063AD7E3
S20500063BFEBB
S20500063CE3D5
S20500063D189F
S20500063EA70F
S20500063FFEB7
S205000640B301
S20500064105AE
S205000642BEF4
S20500064300B1
S205000644634D
S20500064502AD
S205000646C6E8
S20500064705A8
S205000648B3F9
S20500064907A4
S20500064AB8F2
S20500064B00A9
S20500064C8325
S20500064DC6E1
S20500064E079F
S20500064F00A5
S2050006503371
S205000651871C
S205000652B4EE
S20500065300A1
S205000654930D
S2050006558718
S2050006561589
S205000657009D
S2050006582379
S205000659009B
S20500065AD7C3
S20500065B0099
S20500065C6335
S20500065DD6C1
S20500065E672F
S20500065F0293
S2050006603361
S205000661078C
S205000662F89A
S2050006630091
S205000664038D
S2050006654748
S2050006660787
S205000667008D
S205000668B3D9
S2050006698704
S20500066AF496
S20500066B0089
S20500066C93F5
S20500066D8502
S20500066E2561
S20500066F0085
S2050006702361
S2050006718003
S205000672E79B
S2050006730081
S205000674631D
S205000675DAA5
S2050006766519
S205000677007D
S205000678B3C9
S2050006790774
S20500067AB8C2
S20500067B0079
S20500067C83F5
S20500067DC7B0
S20500067E076F
S20500067F0075
S205000680B3C1
S20500068185EE
S205000682B4BE
S2050006830071
S205000684234D
S20500068580EF
S205000686F579
S205000687006D
S2050006880369
S2050006892843
S20500068ACAA0
S20500068B0069
S20500068C0365
S20500068DA3C4
S20500068E4A1C
S20500068F0065
S2050006900361
S2050006912E35
S2050006924A18
S2050006930061
S205000694134D
S2050006950659
S205000696302E
S205000697005D
S20500069893C9
S2050006995EFD
S20500069AF367
S20500069B4118
S20500069C93C5
S20500069DF562
S20500069E3E18
S20500069F0055
S2050006A03321
S2050006A1054E
S2050006A2C88A
S2050006A30150
S2050006A4B39D
S2050006A585CA
S2050006A665E9
S2050006A7004D
S2050006A893B9
S2050006A9D576
S2050006AA2525
S2050006AB4009
S2050006AC93B5
S2050006AD0641
S2050006AE0541
S2050006AF0045
S2050006B01331
S2050006B1073C
S2050006B2043E
S2050006B30041
S2050006B493AD
S2050006B50738
S2050006B6003E
S2050006B7003D
S2050006B863D9
S2050006B95EDD
S2050006BA66D4
S2050006BB0E2B
S2050006BC0335
S2050006BDA691
S2050006BE0630
S2050006BF0035
S2050006C093A1
S2050006C187AC
S2050006C2171B
S2050006C30031
S2050006C4939D
S2050006C586A9
S2050006C646E8
S2050006C7002D
S2050006C82309
S2050006C9200B
S2050006CAC763
S2050006CB0029
S2050006CC1315
S2050006CD0720
S2050006CE47DF
S2050006CF0025
S2050006D0E341
S2050006D1C65D
S2050006D2B76B
S2050006D3FE23
S2050006D4938D
S2050006D5958A
S2050006D625F9
S2050006D7001D
S2050006D863B9
S2050006D9DC3F
S2050006DA65B5
S2050006DB0A0F
S2050006DC9385
S2050006DDDE39
S2050006DEEE28
S2050006DF0114
S2050006E033E1
S2050006E1060D
S2050006E2D33F
S2050006E30110
S2050006E413FD
S2050006E57699
S2050006E636D8
S2050006E7000D
S2050006E833D9
S2050006E90605
S2050006EAD634
S2050006EB41C8
S2050006EC13F5
S2050006ED0700
S2050006EEF610
S2050006EFFF06
S2050006F09371
S2050006F107FC
S2050006F260A2
S2050006F30001
S2050006F4936D
S2050006F58E71
S2050006F605F9
S2050006F700FD
S2050006F86399
S2050006F9F209
S2050006FAE713
S2050006FB0CED
S2050006FC33C5
S2050006FD0EE9
S2050006FEBE38
S2050006FF00F5
S20500070033C0
S20500070109E9
S205000702B938
S20500070300F0
S20500070413DC
S20500070507E7
S2050007061ECF
S20500070700EC
S205000708B338
S2050007098664
S20500070A28C1
S20500070B01E7
S20500070C33B4
S20500070D07DF
S20500070EE8FD
S20500070F00E4
S20500071033B0
S205000711875B
S205000712E6FB
S20500071340A0
S20500071413CC
S20500071537A7
S20500071637A6
S20500071700DC
S205000718B328
S20500071907D3
S20500071AC811
S20500071B01D7
S20500071C6374
S20500071D10C6
S20500071E07CE
S20500071F0ACA
S20500072033A0
S205000721E7EB
S205000722D7FA
S20500072300D0
S20500072413BC
S2050007257757
S2050007263796
S20500072700CC
S2050007286368
S2050007291AB0
S20500072A07C2
S20500072B08C0
S20500072C9334
S20500072D784E
S20500072EC6FF
S20500072FFFC5
S2050007303390
S205000731883A
S20500073217AA
S20500073301BF
S20500073403BC
S205000735A717
S20500073607B6
S20500073700BC
S2050007389328
S2050007398733
S20500073A4772
S20500073B00B8
S20500073C9324
S20500073D8630
S20500073E466F
S20500073F00B4
S2050007402390
S205000741AE04
S205000742E6CB
S205000743FEB2
S205000744E3CC
S2050007451896
S205000746F8B5
S205000747FEAE
S205000748B3F8
S2050007498525
S20500074AB8F1
S20500074B00A8
S20500074C6344
S20500074D02A4
S20500074E168F
S20500074F059F
S205000750B3F0
S205000751079B
S205000752B5EC
S20500075300A0
S205000754831C
S205000755C6D8
S2050007560796
S205000757009C
S2050007583368
S2050007590793
S20500075AB4E5
S20500075B0098
S20500075C9304
S20500075D870F
S20500075E1580
S20500075F0094
S2050007602370
S2050007610092
S205000762D7BA
S2050007630090
S205000764632C
S205000765D6B8
S2050007666726
S205000767028A
S2050007683358
S2050007690783
S20500076AF594
S20500076B0088
S20500076C0384
S20500076D473F
S20500076E077E
S20500076F0084
S205000770B3D0
S205000771077B
S205000772F48D
S2050007730080
S20500077493EC
S20500077585F9
S2050007762558
S205000777007C
S2050007782358
S20500077980FA
S20500077AE792
S20500077B0078
S20500077C6314
S20500077DDA9C
S20500077E6510
S20500077F0074
S2050007803340
S205000781066C
S205000782B5BC
S2050007830070
S20500078483EC
S2050007854727
S2050007860667
S205000787006C
S205000788B3B8
S2050007890565
S20500078AB4B5
S20500078B0068
S20500078C2344
S20500078D80E6
S20500078EF570
S20500078F0064
S20500079083E0
S2050007912042
S205000792C1A0
S205000793015F
S205000794035C
S205000795243A
S20500079681DC
S205000797015B
S20500079883D8
S2050007992436
S20500079A4118
S20500079B0157
S20500079C0354
S20500079D292D
S20500079E0154
S20500079F0153
S2050007A083D0
S2050007A12929
S2050007A2C190
S2050007A30050
S2050007A4034C
S2050007A52A24
S2050007A681CC
S2050007A7004C
S2050007A883C8
S2050007A92A20
S2050007AA4108
S2050007AB0048
S2050007AC1334
S2050007AD0145
S2050007AE0144
S2050007AF0242
S2050007B067DC
S2050007B180C2
S2050007B20041
S2050007B30040
S2050007B4E35C
S2050007B55EE0
S2050007B660DD
S2050007B7FC40
S2050007B893A8
S2050007B90E2C
S2050007BA0039
S2050007BB0038
S2050007BCB384
S2050007BD072F
S2050007BED560
S2050007BF0133
S2050007C03300
S2050007C1072B
S2050007C2D45D
S2050007C3012F
S2050007C433FC
S2050007C50628
S2050007C665C8
S2050007C7002C
S2050007C883A8
S2050007C9C664
S2050007CA0722
S2050007CB0028
S2050007CC9394
S2050007CD879F
S2050007CE170E
S2050007CF0024
S2050007D01310
S2050007D1071B
S2050007D2170A
S2050007D30020
S2050007D4A37C
S2050007D50F0F
S2050007D6D746
S2050007D7FE1E
S2050007D8E338
S2050007D99882
S2050007DAC752
S2050007DBFE1A
S2050007DC6FA8
S2050007DDF026
S2050007DE5FB6
S2050007DFFB19
S2050007E0E330
S2050007E156BC
S2050007E260B1
S2050007E3EA26
S2050007E413FC
S2050007E50509
S2050007E6000D
S2050007E7000C
S2050007E8B358
S2050007E90604
S2050007EAA861
S2050007EB0008
S2050007EC33D4
S2050007ED877F
S2050007EEA461
S2050007EF0004
S2050007F0B350
S2050007F107FB
S2050007F26899
S2050007F30000
S2050007F403FC
S2050007F5C638
S2050007F606F7
S2050007F700FC
S2050007F89368
S2050007F98674
S2050007FA16E3
S2050007FB00F8
S2050007FC13E4
S2050007FD07EF
S2050007FE17DE
S2050007FF00F4
S205000800A34F
S2050008010FE2
S205000802C729
S205000803FEF1
S205000804E30B
S2050008059855
S205000806F6F6
S205000807FEED
S20500080803E7
S20500080928C1
S20500080ACA1E
S20500080B00E7
S20500080C6F77
S20500080DF0F5
S20500080E1FC5
S20500080FE8FB
S20500081013CF
S20500081101E0
S20500081201DF
S205000813FCE3
S20500081423BB
S20500081520BD
S205000816617B
S20500081703D8
S20500081803D7
S2050008192BAE
S20500081AC612
S20500081B06D1
S20500081C23B3
S20500081D2CA9
S20500081E8153
S20500081F02D1
S20500082023AF
S2050008212AA7
S205000822913F
S20500082302CD
S205000824933B
S2050008255776
S205000826FBD1
S205000827418A
S20500082823A7
S20500082928A1
S20500082A21A7
S20500082B03C4
S20500082C23A3
S20500082D269F
S20500082E3193
S20500082F03C0
S205000830239F
S205000831229F
S205000832516F
S20500083303BC
S205000834932B
S205000835F7C6
S2050008363785
S20500083700BB
S205000838B703
S20500083909B0
S20500083A10A8
S20500083B00B7
S20500083C2393
S20500083D2E87
S20500083E11A3
S20500083F02B1
S205000840238F
S205000841248D
S205000842416F
S20500084303AC
S205000844139B
S20500084507A6
S205000846307C
S20500084700AB
S2050008488327
S205000849AAFF
S20500084A891F
S20500084B6047
S20500084C9313
S20500084D04A1
S20500084E069E
S20500084F00A3
S205000850B3EF
S205000851871A
S2050008526739
S205000853019E
S205000854138B
S2050008550994
S2050008560597
S205000857009B
S2050008581387
S2050008598415
S20500085A0593
S20500085B0097
S20500085C6333
S20500085D5441
S20500085E672D
S20500085F5F34
S20500086093FF
S205000861D7BA
S2050008622769
S205000863404F
S205000864137B
S2050008659AF3
S2050008662765
S205000867008B
S2050008681377
S2050008690683
S20500086A0A7E
S20500086B0087
S20500086C93F3
S20500086D8500
S20500086E0A7A
S20500086F0083
S205000870136F
S205000871057C
S205000872017F
S205000873007F
S205000874EF8F
S205000875F08D
S2050008761F5D
S205000877AFCC
S2050008786317
S2050008795A1F
S20500087A6A0E
S20500087B0176
S20500087C3343
S20500087D066F
S20500087E4B29
S20500087F4132
S205000880B3BF
S20500088185EC
S2050008824A26
S205000883016E
S205000884333B
S2050008850568
S205000886412B
S205000887016A
S205000888EF7B
S205000889F079
S20500088ADF89
S20500088BADBA
S20500088C0363
S20500088DAEB7
S20500088E84E0
S20500088F065D
S20500089063FF
S205000891520F
S205000892C0A0
S2050008931B44
S205000894B7A7
S2050008950756
S205000896104C
S205000897005B
S20500089893C7
S20500089987D2
S20500089A4711
S20500089B59FE
S20500089C83D3
S20500089DA5B0
S20500089E074D
S20500089F0053
S2050008A0133F
S2050008A1074A
S2050008A22030
S2050008A3004F
S2050008A4034B
S2050008A5A5A8
S2050008A687C5
S2050008A7004B
S2050008A81337
S2050008A90346
S2050008AAFE4A
S2050008ABFF48
S2050008AC63E3
S2050008AD54F1
S2050008AEB78D
S2050008AF380B
S2050008B0033F
S2050008B1AF92
S2050008B247F9
S2050008B3003F
S2050008B483BB
S2050008B5AE8F
S2050008B6C775
S2050008B7003B
S2050008B8B387
S2050008B93504
S2050008BA60D8
S2050008BB0037
S2050008BC93A3
S2050008BD1F16
S2050008BE1F15
S2050008BF0033
S2050008C063CF
S2050008C15AD7
S2050008C2A090
S2050008C34CE3
S2050008C4939B
S2050008C5022B
S2050008C6002C
S2050008C7002B
S2050008C89397
S2050008C90821
S2050008CA0028
S2050008CB0027
S2050008CC1313
S2050008CD081D
S2050008CE0024
S2050008CF0023
S2050008D06FB3
S2050008D10021
S2050008D20020
S2050008D3041B
S2050008D4938B
S2050008D50617
S2050008D630EC
S2050008D7001B
S2050008D863B7
S2050008D99E7B
S2050008DAD741
S2050008DB0017
S2050008DCB363
S2050008DD070E
S2050008DE1103
S2050008DF0112
S2050008E0838F
S2050008E1C64B
S2050008E20709
S2050008E3000F
S2050008E4937B
S2050008E50508
S2050008E610FC
S2050008E7000B
S2050008E8B357
S2050008E99574
S2050008EA0503
S2050008EB0106
S2050008ECB353
S2050008EDC63F
S2050008EEB64E
S2050008EF0003
S2050008F023DF
S2050008F18081
S2050008F2D729
S2050008F300FF
S2050008F4936B
S2050008F502FB
S2050008F607F5
S2050008F700FB
S2050008F86397
S2050008F90EEB
S2050008FAEE0A
S2050008FB12E5
S2050008FCB343
S2050008FD05F0
S2050008FE678D
S2050008FF40B3
S205000900B33E
S20500090135BB
S205000902B03F
S20500090300EE
S205000904935A
S20500090507E5
S20500090600EB
S20500090700EA
S2050009089356
S20500090906E2
S20500090A00E7
S20500090B00E6
S20500090C6382
S20500090D5A8A
S20500090EA63D
S20500090F30B2
S205000910B32E
S205000911865A
S2050009121EC1
S20500091301DD
S205000914B32A
S2050009158755
S205000916E6F5
S20500091701D9
S20500091833A6
S2050009198751
S20500091AFED9
S20500091B01D5
S20500091C8352
S20500091DC70D
S20500091E07CC
S20500091F00D2
S205000920834E
S205000921C60A
S20500092206C9
S20500092300CE
S205000924339A
S20500092507C5
S20500092617B4
S20500092701C9
S20500092803C6
S2050009294781
S20500092A07C0
S20500092B00C6
S20500092CB312
S20500092DD7ED
S20500092E07BC
S20500092F4181
S205000930B30E
S205000931D6EA
S20500093206B9
S205000933417D
S205000934932A
S205000935F7C5
S20500093617A4
S20500093700BA
S2050009389326
S205000939F6C2
S20500093A16A1
S20500093B00B6
S20500093C3382
S20500093D575D
S20500093E07AC
S20500093F4171
S205000940B3FE
S2050009418729
S205000942D7D8
S20500094300AE
S205000944139A
S2050009457735
S2050009461794
S20500094700AA
S205000948B3F6
S2050009498721
S20500094AE7C0
S20500094B00A6
S20500094C1392
S20500094D861E
S20500094E02A1
S20500094F00A2
S205000950930E
S205000951366A
S2050009521689
S205000953009E
S205000954633A
S205000955CAD2
S205000956D5C6
S2050009572C6E
S2050009583366
S2050009590791
S20500095AD6C1
S20500095B0096
S20500095C6332
S20500095D583C
S20500095EA7EC
S20500095F048E
S20500096093FE
S205000961533D
S2050009623758
S205000963404E
S205000964B3DA
S2050009658804
S2050009667E0D
S205000967008A
S2050009683356
S2050009698800
S20500096AEE99
S20500096B0185
S20500096C8302
S20500096DC8BC
S20500096E087B
S20500096F0082
S205000970334E
S2050009710878
S2050009727807
S205000973007E
S205000974B3CA
S20500097582FA
S205000976FE7D
S2050009770179
S2050009780376
S2050009794830
S20500097A086F
S20500097B0076
S20500097CB3C2
S20500097D82F2
S20500097E7201
S20500097F0072
S205000980135E
S20500098177F9
S20500098277F8
S205000983006E
S20500098483EA
S205000985C2AA
S2050009860269
S205000987006A
S205000988B3B6
S205000989D890
S20500098AE87F
S20500098B4026
S20500098C3332
S20500098D580C
S20500098EE87B
S20500098F4022
S20500099093CE
S205000991F868
S2050009921847
S205000993005E
S205000994B3AA
S20500099588D4
S205000996F863
S205000997005A
S2050009983326
S205000999D781
S20500099AE275
S20500099B4016
S20500099C93C2
S20500099D77DD
S20500099E183B
S20500099F0052
S2050009A0B39E
S2050009A187C9
S2050009A21738
S2050009A3014D
S2050009A4133A
S2050009A577D5
S2050009A61734
S2050009A7004A
S2050009A8B396
S2050009A987C1
S2050009AAE760
S2050009AB0046
S2050009AC93B2
S2050009AD86BE
S2050009AE162D
S2050009AF0042
S2050009B0132E
S2050009B10739
S2050009B21629
S2050009B3003E
S2050009B463DA
S2050009B5C874
S2050009B6D566
S2050009B70436
S2050009B863D6
S2050009B956E2
S2050009BAA790
S2050009BB0432
S2050009BC93A2
S2050009BD58DC
S2050009BE37FC
S2050009BF40F2
S2050009C0B37E
S2050009C186AA
S2050009C21E11
S2050009C3012D
S2050009C483AA
S2050009C5C567
S2050009C60625
S2050009C7002A
S2050009C833F6
S2050009C988A0
S2050009CAFE29
S2050009CB0125
S2050009CCB372
S2050009CD869E
S2050009CEE63D
S2050009CF0121
S2050009D033EE
S2050009D10818
S2050009D21807
S2050009D3011D
S2050009D4839A
S2050009D5C656
S2050009D60615
S2050009D7001A
S2050009D89386
S2050009D978A0
S2050009DA77A0
S2050009DB0016
S2050009DC0312
S2050009DD48CC
S2050009DE080B
S2050009DF0012
S2050009E0B35E
S2050009E1D53B
S2050009E215FA
S2050009E341CD
S2050009E4B35A
S2050009E5D636
S2050009E616F5
S2050009E741C9
S2050009E89376
S2050009E9F513
S2050009EA15F2
S2050009EB0006
S2050009ECB352
S2050009ED857F
S2050009EEF50E
S2050009EF0002
S2050009F0936E
S2050009F1F709
S2050009F216E9
S2050009F300FE
S2050009F4B34A
S2050009F556A6
S2050009F618E3
S2050009F741B9
S2050009F8B346
S2050009F98771
S2050009FAB740
S2050009FB00F6
S2050009FC9362
S2050009FDF6FE
S2050009FE16DD
S2050009FF00F2
S205000A00B33D
S205000A018768
S205000A02D717
S205000A0300ED
S205000A049359
S205000A055893
S205000A0636B4
S205000A0740A9
S205000A08B335
S205000A098661
S205000A0A1ACC
S205000A0B01E4
S205000A0C8361
S205000A0DC61D
S205000A0E06DC
S205000A0F00E1
S205000A1013CD
S205000A117867
S205000A127668
S205000A1300DD
S205000A14B329
S205000A15D605
S205000A1606D4
S205000A174198
S205000A189345
S205000A19F6E1
S205000A1A16C0
S205000A1B00D5
S205000A1CE3F1
S205000A1D8C47
S205000A1E06CC
S205000A1FEAE7
S205000A20933D
S205000A218748
S205000A22D7F7
S205000A23FFCE
S205000A249339
S205000A2506C5
S205000A2610BA
S205000A2700C9
S205000A28E3E5
S205000A29EADD
S205000A2AF6D0
S205000A2BEADB
S205000A2C9331
S205000A2D02C1
S205000A2E07BB
S205000A2F00C1
S205000A30E3DD
S205000A3116A9
S205000A32EED0
S205000A33ECD1
S205000A3403B9
S205000A352B90
S205000A364971
S205000A3700B9
S205000A3803B5
S205000A392790
S205000A3AC9ED
S205000A3B00B5
S205000A3C9321
S205000A3D06AD
S205000A3E3082
S205000A3F00B1
S205000A40337D
S205000A4106A9
S205000A42644A
S205000A4303AA
S205000A449319
S205000A455754
S205000A46FBAF
S205000A474168
S205000A489315
S205000A49F7B0
S205000A4A376F
S205000A4B00A5
S205000A4CB3F1
S205000A4D871C
S205000A4E673B
S205000A4F01A0
S205000A50930D
S205000A51D7C8
S205000A522777
S205000A53405D
S205000A541389
S205000A550A91
S205000A56009A
S205000A570099
S205000A583365
S205000A590790
S205000A5AC7CF
S205000A5B0095
S205000A5C6331
S205000A5DDEB5
S205000A5E662C
S205000A5F0190
S205000A60137D
S205000A619AF5
S205000A622767
S205000A63008D
S205000A641379
S205000A650586
S205000A660783
S205000A670089
S205000A681375
S205000A690681
S205000A6A0A7C
S205000A6B0085
S205000A6C93F1
S205000A6D057E
S205000A6E0181
S205000A6F0081
S205000A70EF91
S205000A71F08F
S205000A725F1F
S205000A738FEE
S205000A741369
S205000A750774
S205000A760575
S205000A770079
S205000A786315
S205000A795A1D
S205000A7A6A0C
S205000A7B0174
S205000A7C3341
S205000A7D066D
S205000A7E4B27
S205000A7F4130
S205000A80B3BD
S205000A81056A
S205000A82412D
S205000A83016C
S205000A843339
S205000A850566
S205000A864723
S205000A870168
S205000A88EF79
S205000A89F077
S205000A8ADF87
S205000A8B8DD8
S205000A8C83E1
S205000A8DA7BC
S205000A8E441E
S205000A8F065B
S205000A90134D
S205000A910758
S205000A92144A
S205000A93005D
S205000A9463F9
S205000A955803
S205000A96F763
S205000A971247
S205000A98B7A1
S205000A990651
S205000A9A1046
S205000A9B0055
S205000A9C371D
S205000A9D074C
S205000A9E1042
S205000A9F0051
S205000AA0034D
S205000AA1A5AA
S205000AA2C688
S205000AA360ED
S205000AA40349
S205000AA52625
S205000AA64703
S205000AA760E9
S205000AA82325
S205000AA9A6A1
S205000AAA56F0
S205000AAB61E4
S205000AAC2321
S205000AAD2221
S205000AAEA79B
S205000AAF60E1
S205000AB0231D
S205000AB1A49B
S205000AB2C975
S205000AB360DD
S205000AB41329
S205000AB50437
S205000AB62416
S205000AB70039
S205000AB863D5
S205000AB95ADD
S205000ABAF442
S205000ABB1223
S205000ABC0331
S205000ABD2310
S205000ABE49E9
S205000ABF0031
S205000AC0032D
S205000AC12807
S205000AC2C965
S205000AC3002D
S205000AC41319
S205000AC50625
S205000AC630FA
S205000AC70029
S205000AC833F5
S205000AC90423
S205000ACA64C2
S205000ACB0223
S205000ACC1311
S205000ACD5EC5
S205000ACEF32F
S205000ACF41E0
S205000AD0938D
S205000AD175AA
S205000AD23EE0
S205000AD3001D
S205000AD4B369
S205000AD58596
S205000AD665B5
S205000AD70019
S205000AD89385
S205000AD9D542
S205000ADA25F1
S205000ADB40D5
S205000ADC9381
S205000ADD060D
S205000ADE050D
S205000ADF0011
S205000AE013FD
S205000AE10708
S205000AE2000E
S205000AE3000D
S205000AE4B359
S205000AE50803
S205000AE68882
S205000AE70009
S205000AE89375
S205000AE98780
S205000AEA08FE
S205000AEB0005
S205000AEC63A1
S205000AED58AB
S205000AEE669C
S205000AEF32CF
S205000AF003FD
S205000AF1A659
S205000AF207F7
S205000AF300FD
S205000AF413E9
S205000AF507F4
S205000AF617E3
S205000AF700F9
S205000AF89365
S205000AF98770
S205000AFA47AF
S205000AFB00F5
S205000AFC23D1
S205000AFDA053
S205000AFEC62C
S205000AFF00F1
S205000B00935C
S205000B018668
S205000B0246A7
S205000B0300EC
S205000B04E308
S205000B0546A4
S205000B06B732
S205000B07FEEA
S205000B089354
S205000B099551
S205000B0A25C0
S205000B0B00E4
S205000B0C6380
S205000B0DDC06
S205000B0E657C
S205000B0F0AD6
S205000B10934C
S205000B115787
S205000B12EEEF
S205000B1301DB
S205000B1433A8
S205000B150ECC
S205000B16F3E6
S205000B1700D8
S205000B1813C4
S205000B197E58
S205000B1A3E97
S205000B1B00D4
S205000B1C33A0
S205000B1D0EC4
S205000B1EFED3
S205000B1F4090
S205000B20933C
S205000B2106C8
S205000B22FECF
S205000B23FFCD
S205000B249338
S205000B2507C3
S205000B266069
S205000B2700C8
S205000B2813B4
S205000B29873F
S205000B2A05C0
S205000B2B00C4
S205000B2C6360
S205000B2DFAC8
S205000B2ED7EA
S205000B2F2E92
S205000B30B30C
S205000B3106B8
S205000B32B409
S205000B3300BC
S205000B3413A8
S205000B358634
S205000B3616A3
S205000B3700B8
S205000B383384
S205000B3906B0
S205000B3AC8ED
S205000B3B00B4
S205000B3CB300
S205000B3D07AB
S205000B3EB5FC
S205000B3F00B0
S205000B40337C
S205000B418628
S205000B42C7E6
S205000B43406C
S205000B441398
S205000B453674
S205000B463673
S205000B4700A8
S205000B483374
S205000B49089E
S205000B4AD8CD
S205000B4B00A4
S205000B4C6340
S205000B4D1A88
S205000B4E069B
S205000B4F2C74
S205000B50B3EC
S205000B516638
S205000B52F8A5
S205000B53009C
S205000B549308
S205000B55F6A4
S205000B563663
S205000B570098
S205000B586334
S205000B599402
S205000B5A068F
S205000B5B2C68
S205000B5C9300
S205000B5D761C
S205000B5ECEC3
S205000B5FFF91
S205000B60137C
S205000B610787
S205000B620885
S205000B63008C
S205000B643358
S205000B658802
S205000B66D7B2
S205000B670088
S205000B680384
S205000B692660
S205000B6A077E
S205000B6B0084
S205000B6C93F0
S205000B6D87FB
S205000B6E473A
S205000B6F0080
S205000B70136C
S205000B710777
S205000B724736
S205000B73007C
S205000B742358
S205000B75AECC
S205000B76C7B2
S205000B77FE7A
S205000B78E394
S205000B79185E
S205000B7AF87D
S205000B7BFE76
S205000B7C6310
S205000B7D046E
S205000B7EDE93
S205000B7F046C
S205000B80B3BC
S205000B8187E7
S205000B82B6B7
S205000B83006C
S205000B843338
S205000B8587E3
S205000B86F871
S205000B870068
S205000B880364
S205000B894620
S205000B8A075E
S205000B8B0064
S205000B8CB3B0
S205000B8D065C
S205000B8EF56C
S205000B8F0060
S205000B90134C
S205000B9187D7
S205000B921746
S205000B93005C
S205000B942338
S205000B9580DA
S205000B96C693
S205000B970058
S205000B9863F4
S205000B995600
S205000B9A67EE
S205000B9B0252
S205000B9CB3A0
S205000B9D86CC
S205000B9EE869
S205000B9F0050
S205000BA083CC
S205000BA1C688
S205000BA20647
S205000BA3004C
S205000BA43318
S205000BA50743
S205000BA6E564
S205000BA70048
S205000BA893B4
S205000BA987BF
S205000BAA271E
S205000BAB0044
S205000BAC2320
S205000BAD0042
S205000BAED76A
S205000BAF0040
S205000BB063DC
S205000BB1DA64
S205000BB267D6
S205000BB3003C
S205000BB43308
S205000BB586B4
S205000BB6F841
S205000BB70038
S205000BB80334
S205000BB947EF
S205000BBA062F
S205000BBB0034
S205000BBCB380
S205000BBD072B
S205000BBEF53C
S205000BBF0030
S205000BC0230C
S205000BC180AE
S205000BC2E746
S205000BC3002C
S205000BC483A8
S205000BC5200A
S205000BC6C168
S205000BC70325
S205000BC80324
S205000BC92402
S205000BCA81A4
S205000BCB0321
S205000BCC83A0
S205000BCD24FE
S205000BCE41E0
S205000BCF031D
S205000BD0031C
S205000BD129F5
S205000BD2011C
S205000BD30319
S205000BD48398
S205000BD529F1
S205000BD6C158
S205000BD70216
S205000BD80314
S205000BD92AEC
S205000BDA8194
S205000BDB0212
S205000BDC8390
S205000BDD2AE8
S205000BDE41D0
S205000BDF020E
S205000BE0030C
S205000BE12BE3
S205000BE2010C
S205000BE3020A
S205000BE413F8
S205000BE50109
S205000BE60108
S205000BE70404
S205000BE867A0
S205000BE98086
S205000BEA0005
S205000BEB0004
S205000BEC0300
S205000BEDA65C
S205000BEEC43D
S205000BEF06FA
S205000BF0E31C
S205000BF15AA4
S205000BF2C03D
S205000BF3FC00
S205000BF403F8
S205000BF524D6
S205000BF68178
S205000BF703F5
S205000BF88374
S205000BF920D6
S205000BFAC134
S205000BFB03F1
S205000BFC8370
S205000BFD24CE
S205000BFE41B0
S205000BFF03ED
S205000C0003EB
S205000C0129C4
S205000C0201EB
S205000C0303E8
S205000C048367
S205000C0529C0
S205000C06C127
S205000C0702E5
S205000C0803E3
S205000C092ABB
S205000C0A8163
S205000C0B02E1
S205000C0C835F
S205000C0D2AB7
S205000C0E419F
S205000C0F02DD
S205000C1003DB
S205000C112BB2
S205000C1201DB
S205000C1302D9
S205000C149347
S205000C1505D4
S205000C1600D8
S205000C1700D7
S205000C1813C3
S205000C1901D4
S205000C1A01D3
S205000C1B04CF
S205000C1C6F63
S205000C1DF0E1
S205000C1ECF01
S205000C1FE6E9
S205000C2013BB
S205000C2106C7
S205000C2207C5
S205000C2300CB
S205000C246F5B
S205000C25F0D9
S205000C265F69
S205000C27D3F4
S205000C2813B3
S205000C2906BF
S205000C2A00C4
S205000C2B00C3
S205000C2C13AF
S205000C2D07BA
S205000C2E10B0
S205000C2F00BF
S205000C306F4F
S205000C31F0CD
S205000C325F5D
S205000C33DDDE
S205000C346357
S205000C355663
S205000C36B008
S205000C3716A1
S205000C3803B3
S205000C39A80D
S205000C3AC7ED
S205000C3B00B3
S205000C3C832F
S205000C3DA809
S205000C3E4769
S205000C3F00AF
S205000C40337B
S205000C413F6E
S205000C42604C
S205000C4300AB
S205000C446347
S205000C455455
S205000C46A008
S205000C472087
S205000C489313
S205000C490F96
S205000C4A00A4
S205000C4B00A3
S205000C4C930F
S205000C4D079A
S205000C4E00A0
S205000C4F009F
S205000C506F2F
S205000C51009D
S205000C52C0DC
S205000C530E8D
S205000C543367
S205000C550693
S205000C56F7A1
S205000C570097
S205000C586333
S205000C595045
S205000C5AA6EE
S205000C5B048F
S205000C5C93FF
S205000C5D5F32
S205000C5E365A
S205000C5F404F
S205000C60B3DB
S205000C610E7F
S205000C62F894
S205000C63018A
S205000C648307
S205000C65CEBB
S205000C660E7A
S205000C670087
S205000C681373
S205000C69760F
S205000C6A760E
S205000C6B0083
S205000C6C93EF
S205000C6D027F
S205000C6E1070
S205000C6F007F
S205000C70B3CB
S205000C71DE9F
S205000C72CEAE
S205000C73403B
S205000C7493E7
S205000C75FE7B
S205000C761E5A
S205000C770077
S205000C78B3C3
S205000C7986EF
S205000C7AD69E
S205000C7B0172
S205000C7C630F
S205000C7D8EE3
S205000C7E551B
S205000C7F006F
S205000C80B3BB
S205000C810E5F
S205000C821854
S205000C83016A
S205000C84B3B7
S205000C858EDB
S205000C86FE6A
S205000C870166
S205000C8883E3
S205000C89CE97
S205000C8A0E56
S205000C8B0063
S205000C8C332F
S205000C8DD68B
S205000C8ECE92
S205000C8F401F
S205000C90134B
S205000C9176E7
S205000C921646
S205000C93005B
S205000C94B3A7
S205000C9586D3
S205000C96C692
S205000C970057
S205000C981343
S205000C99064F
S205000C9A173D
S205000C9B0053
S205000C9C63EF
S205000C9D420F
S205000C9ECF81
S205000C9F044B
S205000CA0133B
S205000CA187C6
S205000CA21735
S205000CA3004B
S205000CA463E7
S205000CA55EEB
S205000CA6A7A1
S205000CA70245
S205000CA893B3
S205000CA95EE7
S205000CAA370D
S205000CAB4003
S205000CACB38F
S205000CAD0E33
S205000CAED868
S205000CAF013E
S205000CB0033B
S205000CB1C677
S205000CB20E2E
S205000CB3003B
S205000CB41327
S205000CB577C2
S205000CB677C1
S205000CB70037
S205000CB81323
S205000CB90F26
S205000CBA1024
S205000CBB0033
S205000CBC33FF
S205000CBD56DB
S205000CBEE64A
S205000CBF40EF
S205000CC0131B
S205000CC176B7
S205000CC21616
S205000CC3002B
S205000CC4B377
S205000CC586A3
S205000CC6C662
S205000CC70027
S205000CC863C3
S205000CC98C99
S205000CCAE53F
S205000CCB0122
S205000CCCB36F
S205000CCD8E93
S205000CCE1E02
S205000CCF011E
S205000CD0031B
S205000CD1C657
S205000CD20E0E
S205000CD3001B
S205000CD433E7
S205000CD557C2
S205000CD6E632
S205000CD740D7
S205000CD81303
S205000CD9779E
S205000CDA17FD
S205000CDB0013
S205000CDCB35F
S205000CDD868B
S205000CDEE62A
S205000CDF000F
S205000CE013FB
S205000CE1D637
S205000CE237D5
S205000CE340CB
S205000CE433D7
S205000CE58782
S205000CE6CA3E
S205000CE70007
S205000CE80303
S205000CE947BE
S205000CEA07FD
S205000CEB0003
S205000CEC936F
S205000CEDFE03
S205000CEE7789
S205000CEF00FF
S205000CF033CB
S205000CF157A6
S205000CF2D725
S205000CF341BA
S205000CF413E7
S205000CF57782
S205000CF617E1
S205000CF700F7
S205000CF86393
S205000CF918DD
S205000CFA07ED
S205000CFB10E3
S205000CFC13DF
S205000CFD07EA
S205000CFE30C0
S205000CFF00EF
S205000D00935A
S205000D018F5D
S205000D0207E4
S205000D0300EA
S205000D046386
S205000D059E4A
S205000D06E601
S205000D0700E6
S205000D0833B2
S205000D0907DD
S205000D0AC122
S205000D0B00E2
S205000D0C835E
S205000D0D469A
S205000D0E07D8
S205000D0F00DE
S205000D10934A
S205000D1107D5
S205000D1210CB
S205000D1300DA
S205000D14B326
S205000D159741
S205000D16D700
S205000D1701D5
S205000D18B322
S205000D19C70D
S205000D1AD7FC
S205000D1B00D2
S205000D1C23AE
S205000D1D00D0
S205000D1EF7D8
S205000D1F00CE
S205000D20933A
S205000D218745
S205000D221FAC
S205000D2300CA
S205000D24E3E6
S205000D2508C0
S205000D26FEC9
S205000D27D0F6
S205000D283392
S205000D2907BD
S205000D2AF3D0
S205000D2B4082
S205000D2C338E
S205000D2D3F81
S205000D2EE0DF
S205000D2F00BE
S205000D30932A
S205000D3106B6
S205000D3200BB
S205000D3300BA
S205000D3413A6
S205000D3507B1
S205000D3600B7
S205000D3700B6
S205000D38E3D2
S205000D39DED6
S205000D3AAF04
S205000D3BF0C2
S205000D3C139E
S205000D3DD7D9
S205000D3E3F70
S205000D3F406E
S205000D40337A
S205000D4107A5
S205000D42E8C3
S205000D4300AA
S205000D448326
S205000D454662
S205000D4607A0
S205000D4700A6
S205000D489312
S205000D49FFA5
S205000D4A7F24
S205000D4B00A2
S205000D4C138E
S205000D4D069A
S205000D4E108F
S205000D4F009E
S205000D50B3EA
S205000D51D6C6
S205000D52F6A5
S205000D534159
S205000D549306
S205000D55F6A2
S205000D561681
S205000D570096
S205000D586332
S205000D598C08
S205000D5AC5CE
S205000D5B0092
S205000D5C335E
S205000D5D0789
S205000D5E1778
S205000D5F018D
S205000D60038A
S205000D614745
S205000D620784
S205000D63008A
S205000D643356
S205000D655731
S205000D66F790
S205000D674145
S205000D681372
S205000D69770D
S205000D6A176C
S205000D6B0082
S205000D6CB3CE
S205000D6D86FA
S205000D6EE699
S205000D6F007E
S205000D70136A
S205000D71B7C5
S205000D721764
S205000D73007A
S205000D74E396
S205000D755028
S205000D76EF88
S205000D77EE88
S205000D7883F2
S205000D79C7AD
S205000D7A0A69
S205000D7B0072
S205000D7C93DE
S205000D7D0F61
S205000D7E006F
S205000D7F006E
S205000D8093DA
S205000D81F775
S205000D821754
S205000D83006A
S205000D84E386
S205000D858EDA
S205000D860760
S205000D87F86E
S205000D8893D2
S205000D890E56
S205000D8A0063
S205000D8B0062
S205000D8C134E
S205000D8D065A
S205000D8E005F
S205000D8F005E
S205000D906FEE
S205000D91F06C
S205000D929FBC
S205000D93F763
S205000D941346
S205000D950652
S205000D960057
S205000D970056
S205000D9893C2
S205000D99074D
S205000D9A0053
S205000D9B0052
S205000D9C6FE2
S205000D9DF060
S205000D9E5FF0
S205000D9FBB93
S205000DA0133A
S205000DA10349
S205000DA2004B
S205000DA3004A
S205000DA493B6
S205000DA556F2
S205000DA63314
S205000DA74006
S205000DA8B392
S205000DA987BD
S205000DAADA69
S205000DAB0042
S205000DAC83BE
S205000DADC779
S205000DAE0738
S205000DAF003E
S205000DB0132A
S205000DB177C5
S205000DB273C8
S205000DB3003A
S205000DB493A6
S205000DB50533
S205000DB61027
S205000DB70036
S205000DB8B382
S205000DB9D75D
S205000DBAE74C
S205000DBB40F2
S205000DBC939E
S205000DBDF739
S205000DBE1718
S205000DBF002E
S205000DC0131A
S205000DC10329
S205000DC21318
S205000DC3002A
S205000DC463C6
S205000DC59494
S205000DC60720
S205000DC70224
S205000DC8E342
S205000DC9061E
S205000DCA6EB5
S205000DCBC65C
S205000DCC938E
S205000DCD56CA
S205000DCE33EC
S205000DCF40DE
S205000DD0B36A
S205000DD18795
S205000DD2DA41
S205000DD3001A
S205000DD48396
S205000DD5C751
S205000DD60710
S205000DD70016
S205000DD81302
S205000DD9779D
S205000DDA73A0
S205000DDB0012
S205000DDC13FE
S205000DDD030D
S205000DDE13FC
S205000DDF000E
S205000DE0B35A
S205000DE1D735
S205000DE2E724
S205000DE340CA
S205000DE49376
S205000DE5F711
S205000DE617F0
S205000DE70006
S205000DE8E322
S205000DE98084
S205000DEA07FC
S205000DEBFE04
S205000DECB34E
S205000DED06FA
S205000DEED12E
S205000DEF00FE
S205000DF003FA
S205000DF1C636
S205000DF206F5
S205000DF300FA
S205000DF4B346
S205000DF59761
S205000DF6E512
S205000DF700F6
S205000DF8B342
S205000DF9C72D
S205000DFAC72C
S205000DFB00F2
S205000DFC23CE
S205000DFD8070
S205000DFEF6F9
S205000DFF00EE
S205000E00E309
S205000E0116D5
S205000E026E7C
S205000E03FCED
S205000E046F79
S205000E05F0F7
S205000E061FC7
S205000E07C322
S205000E089351
S205000E09865D
S205000E0AD60C
S205000E0BFFE2
S205000E0C13CD
S205000E0D07D8
S205000E0E10CE
S205000E0F00DD
S205000E109349
S205000E118F4C
S205000E1207D3
S205000E1300D9
S205000E14E3F5
S205000E157661
S205000E16D7FF
S205000E17F0E5
S205000E186F65
S205000E19F0E3
S205000E1A1FB3
S205000E1BEFE2
S205000E1CE3ED
S205000E1D547B
S205000E1E606E
S205000E1FDAF3
S205000E20B319
S205000E218744
S205000E22E8E2
S205000E2300C9
S205000E243395
S205000E258641
S205000E26685E
S205000E2700C5
S205000E283391
S205000E2907BC
S205000E2AE5DD
S205000E2B00C1
S205000E2C833D
S205000E2DC6F9
S205000E2E07B7
S205000E2F00BD
S205000E309329
S205000E318734
S205000E3217A3
S205000E3300B9
S205000E3413A5
S205000E3507B0
S205000E36179F
S205000E3700B5
S205000E38A311
S205000E390FA4
S205000E3AD7DB
S205000E3BFEB3
S205000E3CE3CD
S205000E3D1897
S205000E3EF6B8
S205000E3FFEAF
S205000E406F3D
S205000E41F0BB
S205000E425F4B
S205000E43D8D1
S205000E441395
S205000E450A9D
S205000E4600A6
S205000E4700A5
S205000E486F35
S205000E49F0B3
S205000E4A1F83
S205000E4BA3FE
S205000E4C930D
S205000E4D0798
S205000E4E009E
S205000E4F009D
S205000E509309
S205000E510695
S205000E52009A
S205000E530099
S205000E546F29
S205000E55F0A7
S205000E56DFB7
S205000E57F1A4
S205000E588311
S205000E59A7EC
S205000E5A454D
S205000E5B068B
S205000E5C137D
S205000E5D018E
S205000E5E018D
S205000E5FFE8F
S205000E602369
S205000E612665
S205000E623159
S205000E630188
S205000E642365
S205000E652E59
S205000E661175
S205000E670085
S205000E68B7CD
S205000E69097A
S205000E6A1072
S205000E6B0081
S205000E6C631D
S205000E6D5C23
S205000E6EF08E
S205000E6F0A73
S205000E702359
S205000E712A51
S205000E7291E9
S205000E730079
S205000E742355
S205000E75284F
S205000E762155
S205000E770174
S205000E782351
S205000E79244F
S205000E7A4131
S205000E7B0170
S205000E7C234D
S205000E7D224D
S205000E7E511D
S205000E7F016C
S205000E802349
S205000E812C3F
S205000E8281E9
S205000E830069
S205000E8493D5
S205000E858ADD
S205000E860561
S205000E870065
S205000E881351
S205000E890A59
S205000E8A055D
S205000E8B0061
S205000E8C93CD
S205000E8D045B
S205000E8E005E
S205000E8F005D
S205000E903725
S205000E910952
S205000E92104A
S205000E930059
S205000E9483D5
S205000E95A7B0
S205000E968ACC
S205000E97064F
S205000E981341
S205000E99044F
S205000E9A0052
S205000E9B0051
S205000E9C63ED
S205000E9D50FF
S205000E9EF05E
S205000E9F0647
S205000EA083C9
S205000EA12724
S205000EA28AC0
S205000EA30049
S205000EA41335
S205000EA556F1
S205000EA63412
S205000EA74005
S205000EA81331
S205000EA9053E
S205000EAA0939
S205000EAB0041
S205000EAC93AD
S205000EAD76C9
S205000EAE74CA
S205000EAF003D
S205000EB093A9
S205000EB10536
S205000EB2E05A
S205000EB30237
S205000EB463D5
S205000EB55CDB
S205000EB6F442
S205000EB70233
S205000EB883B1
S205000EB9270C
S205000EBA0A28
S205000EBB0031
S205000EBC63CD
S205000EBDD857
S205000EBEF43A
S205000EBF022B
S205000EC00329
S205000EC12704
S205000EC24AE0
S205000EC30029
S205000EC483A5
S205000EC52700
S205000EC6CA5C
S205000EC70025
S205000EC833F1
S205000EC9879C
S205000ECAE43E
S205000ECB021F
S205000ECCB36D
S205000ECD8798
S205000ECEE737
S205000ECF001D
S205000ED0B369
S205000ED18794
S205000ED2C753
S205000ED30019
S205000ED48395
S205000ED5C552
S205000ED6070F
S205000ED70015
S205000ED8B361
S205000ED9D53E
S205000EDAD53D
S205000EDB40D1
S205000EDC937D
S205000EDDF51A
S205000EDE15F9
S205000EDF000D
S205000EE0B359
S205000EE10506
S205000EE2B05A
S205000EE340C9
S205000EE49375
S205000EE5F512
S205000EE655B1
S205000EE7FF06
S205000EE89371
S205000EE9857E
S205000EEAE51D
S205000EEB02FF
S205000EECEF11
S205000EED10EF
S205000EEE00FE
S205000EEF708D
S205000EF08379
S205000EF1A754
S205000EF28A70
S205000EF306F3
S205000EF413E5
S205000EF504F3
S205000EF614E2
S205000EF700F5
S205000EF8E311
S205000EF944AF
S205000EFAF4FE
S205000EFBFAF7
S205000EFC13DD
S205000EFD856A
S205000EFEC925
S205000EFF1BD2
S205000F00EFFC
S205000F0110DA
S205000F02C029
S205000F036E7A
S205000F048364
S205000F05A73F
S205000F064A9B
S205000F0706DE
S205000F089350
S205000F09845E
S205000F0A14CD
S205000F0B00E0
S205000F0CE3FC
S205000F0DC41A
S205000F0EF4E9
S205000F0FF8E4
S205000F1003D8
S205000F1124B6
S205000F128158
S205000F1301D7
S205000F148354
S205000F1524B2
S205000F164194
S205000F1701D3
S205000F1803D0
S205000F1929A9
S205000F1A01D0
S205000F1B01CF
S205000F1C03CC
S205000F1D2AA4
S205000F1E814C
S205000F1F00CC
S205000F208348
S205000F212AA0
S205000F224188
S205000F2300C8
S205000F248344
S205000F2520A6
S205000F26C104
S205000F2701C3
S205000F2813B0
S205000F29853D
S205000F2AC9F8
S205000F2B1BA5
S205000F2C833C
S205000F2D2995
S205000F2EC1FC
S205000F2F00BC
S205000F3013A8
S205000F3101B9
S205000F3201B8
S205000F3302B6
S205000F346F48
S205000F3510A6
S205000F368035
S205000F376B49
S205000F3813A0
S205000F3901B1
S205000F3A01B0
S205000F3BF8B8
S205000F3C238C
S205000F3D2C82
S205000F3E812C
S205000F3F06A6
S205000F403774
S205000F4106A4
S205000F421099
S205000F4300A8
S205000F441394
S205000F458422
S205000F4605A0
S205000F4700A4
S205000F48B7EC
S205000F49059D
S205000F4A1091
S205000F4B00A0
S205000F4C138C
S205000F4D0698
S205000F4E4657
S205000F4F0597
S205000F509308
S205000F518515
S205000F52C5D4
S205000F530692
S205000F542374
S205000F552A6C
S205000F569104
S205000F57068E
S205000F589300
S205000F59048E
S205000F5A058C
S205000F5B0090
S205000F5C137C
S205000F5D0589
S205000F5E018C
S205000F5F018B
S205000F602368
S205000F612E5C
S205000F621178
S205000F630682
S205000F642364
S205000F65285E
S205000F662164
S205000F67077D
S205000F682360
S205000F69265C
S205000F6A3150
S205000F6B0779
S205000F6CEF90
S205000F6D106E
S205000F6E80FD
S205000F6F710B
S205000F701368
S205000F710575
S205000F720178
S205000F730177
S205000F74EF88
S205000F750076
S205000F76C0B5
S205000F77690B
S205000F78373C
S205000F79056D
S205000F7A1061
S205000F7B0070
S205000F7C135C
S205000F7D0569
S205000F7E0568
S205000F7F0963
S205000F80EF7C
S205000F81006A
S205000F820069
S205000F834C1C
S205000F841354
S205000F85095D
S205000F860560
S205000F870064
S205000F88372C
S205000F89055D
S205000F8A1051
S205000F8B0060
S205000F8C134C
S205000F8D0559
S205000F8E85D8
S205000F8F005C
S205000F90EF6C
S205000F91104A
S205000F92C099
S205000F9365F3
S205000F9493C4
S205000F950551
S205000F960451
S205000F970054
S205000F981340
S205000F99054D
S205000F9A0948
S205000F9B0050
S205000F9CEF60
S205000F9D004E
S205000F9EC08D
S205000F9F4FFD
S205000FA093B8
S205000FA10545
S205000FA24108
S205000FA30048
S205000FA41334
S205000FA50541
S205000FA6093C
S205000FA70044
S205000FA8EF54
S205000FA90042
S205000FAA0041
S205000FAB4FF1
S205000FAC132C
S205000FAD0539
S205000FAE41FC
S205000FAF003C
S205000FB0EF4C
S205000FB1003A
S205000FB280B9
S205000FB33FF9
S205000FB42314
S205000FB52214
S205000FB6A491
S205000FB7062E
S205000FB893A0
S205000FB9052D
S205000FBA41F0
S205000FBB0030
S205000FBC131C
S205000FBD0529
S205000FBE0924
S205000FBF002C
S205000FC0EF3C
S205000FC1002A
S205000FC280A9
S205000FC34DDB
S205000FC41314
S205000FC50521
S205000FC641E4
S205000FC70024
S205000FC8EF34
S205000FC90022
S205000FCA0021
S205000FCB3EE2
S205000FCC23FC
S205000FCD24FA
S205000FCEA479
S205000FCF0616
S205000FD09388
S205000FD177A3
S205000FD275A4
S205000FD30018
S205000FD49384
S205000FD50610
S205000FD60510
S205000FD70014
S205000FD863B0
S205000FD9987A
S205000FDA070A
S205000FDB0E02
S205000FDC937C
S205000FDD57B7
S205000FDEF518
S205000FDF41CB
S205000FE09378
S205000FE1F713
S205000FE27792
S205000FE30008
S205000FE4B354
S205000FE5877F
S205000FE6A75E
S205000FE70004
S205000FE89370
S205000FE9D72B
S205000FEA37CA
S205000FEB40C0
S205000FEC03FC
S205000FED26D8
S205000FEE44B9
S205000FEF06F6
S205000FF037C4
S205000FF105F5
S205000FF210E9
S205000FF300F8
S205000FF423D4
S205000FF526D0
S205000FF6F401
S205000FF706EE
S205000FF89360
S205000FF905ED
S205000FFA04ED
S205000FFB00F0
S205000FFC13DC
S205000FFD05E9
S205000FFEC528
S205000FFF02EA
S205001000EFFB
S20500100110D9
S205001002C028
S2050010035E89
S2050010048363
S20500100526BF
S205001006C420
S20500100706DD
S20500100803DF
S20500100927BA
S20500100A449C
S20500100B06D9
S20500100C03DB
S20500100D26B7
S20500100E8458
S20500100F06D5
S205001010B723
S20500101107D2
S20500101210C8
S20500101300D7
S20500101433A3
S20500101504D1
S205001016D7FD
S20500101702D1
S20500101823AF
S205001019A031
S20500101AE4EC
S20500101B00CF
S20500101C933B
S20500101D8746
S20500101E4785
S20500101F5972
S20500102013B7
S20500102107C2
S2050010223098
S20500102300C7
S205001024B70F
S20500102505C0
S20500102600C4
S2050010274083
S205001028239F
S205001029A021
S20500102AE7D9
S20500102B00BF
S20500102C3787
S20500102D05B8
S20500102E10AC
S20500102F00BB
S2050010303783
S20500103107B2
S20500103210A8
S20500103300B7
S2050010342393
S205001035A213
S205001036D4E0
S20500103700B3
S205001038238F
S205001039A40D
S20500103AC4EC
S20500103B00AF
S20500103C238B
S20500103DA607
S20500103EB4F8
S20500103F00AB
S2050010401397
S20500104107A2
S2050010424761
S2050010435A4D
S2050010441393
S20500104505A0
S205001046059F
S2050010470A99
S205001048237F
S205001049A4FD
S20500104AC7D9
S20500104B009F
S20500104C237B
S20500104DA2FB
S20500104ED7C5
S20500104F009B
S2050010502377
S205001051A6F3
S205001052E7B1
S2050010530097
S205001054EFA7
S2050010550095
S205001056C0D4
S2050010573E55
S205001058830F
S205001059A5EC
S20500105AC4CC
S20500105B008F
S20500105C93FB
S20500105D0984
S20500105E0587
S20500105F008B
S2050010603753
S2050010610584
S2050010621078
S2050010630087
S2050010641373
S205001065067F
S2050010660480
S2050010670083
S205001068136F
S205001069057C
S20500106A057B
S20500106B0B74
S20500106CEF8F
S20500106D106D
S20500106E007C
S20500106F5823
S2050010700377
S205001071A6D3
S205001072C4B4
S2050010730077
S20500107493E3
S2050010750570
S2050010760470
S2050010770073
S205001078135F
S20500107985EC
S20500107A0967
S20500107B006F
S20500107CEF7F
S20500107D006D
S20500107E402C
S20500107F4922
S205001080EF7B
S2050010810069
S20500108280E8
S2050010834A1D
S2050010841353
S2050010850461
S205001086055F
S2050010870063
S205001088E37F
S2050010890C55
S20500108A055B
S20500108BFE61
S20500108C134B
S20500108D85D8
S20500108E0953
S20500108F005B
S205001090EF6B
S2050010910059
S205001092C098
S2050010933D1A
S2050010941343
S2050010950550
S205001096094B
S2050010970053
S205001098EF63
S2050010990051
S20500109A4010
S20500109B3D12
S20500109C3717
S20500109D0548
S20500109E103C
S20500109F004B
S2050010A093B7
S2050010A10544
S2050010A20444
S2050010A30047
S2050010A41333
S2050010A50540
S2050010A645FF
S2050010A70F34
